{
	"Users/smidolt/new files in programming/HARDHEAD/contracts/Education/7_Trees.sol": {
		"Tree": {
			"abi": [
				{
					"inputs": [],
					"stateMutability": "nonpayable",
					"type": "constructor"
				},
				{
					"inputs": [
						{
							"internalType": "string",
							"name": "input",
							"type": "string"
						}
					],
					"name": "encode",
					"outputs": [
						{
							"internalType": "bytes",
							"name": "",
							"type": "bytes"
						}
					],
					"stateMutability": "pure",
					"type": "function"
				},
				{
					"inputs": [
						{
							"internalType": "uint256",
							"name": "",
							"type": "uint256"
						}
					],
					"name": "hashes",
					"outputs": [
						{
							"internalType": "bytes32",
							"name": "",
							"type": "bytes32"
						}
					],
					"stateMutability": "view",
					"type": "function"
				},
				{
					"inputs": [
						{
							"internalType": "string",
							"name": "input",
							"type": "string"
						}
					],
					"name": "makeHash",
					"outputs": [
						{
							"internalType": "bytes32",
							"name": "",
							"type": "bytes32"
						}
					],
					"stateMutability": "pure",
					"type": "function"
				},
				{
					"inputs": [
						{
							"internalType": "string",
							"name": "transaction",
							"type": "string"
						},
						{
							"internalType": "uint256",
							"name": "index",
							"type": "uint256"
						},
						{
							"internalType": "bytes32",
							"name": "root",
							"type": "bytes32"
						},
						{
							"internalType": "bytes32[]",
							"name": "proof",
							"type": "bytes32[]"
						}
					],
					"name": "verify",
					"outputs": [
						{
							"internalType": "bool",
							"name": "",
							"type": "bool"
						}
					],
					"stateMutability": "pure",
					"type": "function"
				}
			],
			"devdoc": {
				"kind": "dev",
				"methods": {},
				"version": 1
			},
			"evm": {
				"assembly": "    /* \"Users/smidolt/new files in programming/HARDHEAD/contracts/Education/7_Trees.sol\":60:1642  contract Tree {... */\n  mstore(0x40, 0x80)\n    /* \"Users/smidolt/new files in programming/HARDHEAD/contracts/Education/7_Trees.sol\":109:268  string[4] transactions = [... */\n  mload(0x40)\n  dup1\n  0x80\n  add\n  0x40\n  mstore\n  dup1\n  mload(0x40)\n  dup1\n  0x40\n  add\n  0x40\n  mstore\n  dup1\n  0x15\n  dup2\n  mstore\n  0x20\n  add\n  0x5458313a20536865726c6f636b202d3e204a6f686e0000000000000000000000\n  dup2\n  mstore\n  pop\n  dup2\n  mstore\n  0x20\n  add\n  mload(0x40)\n  dup1\n  0x40\n  add\n  0x40\n  mstore\n  dup1\n  0x15\n  dup2\n  mstore\n  0x20\n  add\n  0x5458323a204a6f686e202d3e20536865726c6f636b0000000000000000000000\n  dup2\n  mstore\n  pop\n  dup2\n  mstore\n  0x20\n  add\n  mload(0x40)\n  dup1\n  0x40\n  add\n  0x40\n  mstore\n  dup1\n  0x11\n  dup2\n  mstore\n  0x20\n  add\n  0x5458333a204a6f686e202d3e204d617279000000000000000000000000000000\n  dup2\n  mstore\n  pop\n  dup2\n  mstore\n  0x20\n  add\n  mload(0x40)\n  dup1\n  0x40\n  add\n  0x40\n  mstore\n  dup1\n  0x15\n  dup2\n  mstore\n  0x20\n  add\n  0x5458333a204d617279202d3e20536865726c6f636b0000000000000000000000\n  dup2\n  mstore\n  pop\n  dup2\n  mstore\n  pop\n  0x01\n  swap1\n  0x04\n  tag_1\n  swap3\n  swap2\n  swap1\n  tag_2\n  jump\t// in\ntag_1:\n  pop\n    /* \"Users/smidolt/new files in programming/HARDHEAD/contracts/Education/7_Trees.sol\":275:833  constructor() {... */\n  callvalue\n  dup1\n  iszero\n  tag_3\n  jumpi\n  0x00\n  dup1\n  revert\ntag_3:\n  pop\n    /* \"Users/smidolt/new files in programming/HARDHEAD/contracts/Education/7_Trees.sol\":303:309  uint i */\n  0x00\n    /* \"Users/smidolt/new files in programming/HARDHEAD/contracts/Education/7_Trees.sol\":299:408  for(uint i = 0; i < transactions.length; i++) {... */\ntag_6:\n    /* \"Users/smidolt/new files in programming/HARDHEAD/contracts/Education/7_Trees.sol\":319:338  transactions.length */\n  0x04\n    /* \"Users/smidolt/new files in programming/HARDHEAD/contracts/Education/7_Trees.sol\":315:316  i */\n  dup2\n    /* \"Users/smidolt/new files in programming/HARDHEAD/contracts/Education/7_Trees.sol\":315:338  i < transactions.length */\n  lt\n    /* \"Users/smidolt/new files in programming/HARDHEAD/contracts/Education/7_Trees.sol\":299:408  for(uint i = 0; i < transactions.length; i++) {... */\n  iszero\n  tag_7\n  jumpi\n    /* \"Users/smidolt/new files in programming/HARDHEAD/contracts/Education/7_Trees.sol\":359:365  hashes */\n  0x00\n    /* \"Users/smidolt/new files in programming/HARDHEAD/contracts/Education/7_Trees.sol\":371:396  makeHash(transactions[i]) */\n  tag_9\n    /* \"Users/smidolt/new files in programming/HARDHEAD/contracts/Education/7_Trees.sol\":380:392  transactions */\n  0x01\n    /* \"Users/smidolt/new files in programming/HARDHEAD/contracts/Education/7_Trees.sol\":393:394  i */\n  dup4\n    /* \"Users/smidolt/new files in programming/HARDHEAD/contracts/Education/7_Trees.sol\":380:395  transactions[i] */\n  0x04\n  dup2\n  lt\n  tag_10\n  jumpi\n  tag_11\n  tag_12\n  jump\t// in\ntag_11:\ntag_10:\n  add\n    /* \"Users/smidolt/new files in programming/HARDHEAD/contracts/Education/7_Trees.sol\":371:396  makeHash(transactions[i]) */\n  dup1\n  sload\n  tag_14\n  swap1\n  tag_15\n  jump\t// in\ntag_14:\n  dup1\n  0x1f\n  add\n  0x20\n  dup1\n  swap2\n  div\n  mul\n  0x20\n  add\n  mload(0x40)\n  swap1\n  dup2\n  add\n  0x40\n  mstore\n  dup1\n  swap3\n  swap2\n  swap1\n  dup2\n  dup2\n  mstore\n  0x20\n  add\n  dup3\n  dup1\n  sload\n  tag_16\n  swap1\n  tag_15\n  jump\t// in\ntag_16:\n  dup1\n  iszero\n  tag_17\n  jumpi\n  dup1\n  0x1f\n  lt\n  tag_18\n  jumpi\n  0x0100\n  dup1\n  dup4\n  sload\n  div\n  mul\n  dup4\n  mstore\n  swap2\n  0x20\n  add\n  swap2\n  jump(tag_17)\ntag_18:\n  dup3\n  add\n  swap2\n  swap1\n  0x00\n  mstore\n  keccak256(0x00, 0x20)\n  swap1\ntag_19:\n  dup2\n  sload\n  dup2\n  mstore\n  swap1\n  0x01\n  add\n  swap1\n  0x20\n  add\n  dup1\n  dup4\n  gt\n  tag_19\n  jumpi\n  dup3\n  swap1\n  sub\n  0x1f\n  and\n  dup3\n  add\n  swap2\ntag_17:\n  pop\n  pop\n  pop\n  pop\n  pop\n    /* \"Users/smidolt/new files in programming/HARDHEAD/contracts/Education/7_Trees.sol\":371:379  makeHash */\n  shl(0x20, tag_20)\n    /* \"Users/smidolt/new files in programming/HARDHEAD/contracts/Education/7_Trees.sol\":371:396  makeHash(transactions[i]) */\n  0x20\n  shr\n  jump\t// in\ntag_9:\n    /* \"Users/smidolt/new files in programming/HARDHEAD/contracts/Education/7_Trees.sol\":359:397  hashes.push(makeHash(transactions[i])) */\n  swap1\n  dup1\n  0x01\n  dup2\n  sload\n  add\n  dup1\n  dup3\n  sstore\n  dup1\n  swap2\n  pop\n  pop\n  0x01\n  swap1\n  sub\n  swap1\n  0x00\n  mstore\n  keccak256(0x00, 0x20)\n  add\n  0x00\n  swap1\n  swap2\n  swap1\n  swap2\n  swap1\n  swap2\n  pop\n  sstore\n    /* \"Users/smidolt/new files in programming/HARDHEAD/contracts/Education/7_Trees.sol\":340:343  i++ */\n  dup1\n  dup1\n  0x01\n  add\n  swap2\n  pop\n  pop\n    /* \"Users/smidolt/new files in programming/HARDHEAD/contracts/Education/7_Trees.sol\":299:408  for(uint i = 0; i < transactions.length; i++) {... */\n  jump(tag_6)\ntag_7:\n  pop\n    /* \"Users/smidolt/new files in programming/HARDHEAD/contracts/Education/7_Trees.sol\":418:428  uint count */\n  0x00\n    /* \"Users/smidolt/new files in programming/HARDHEAD/contracts/Education/7_Trees.sol\":431:450  transactions.length */\n  0x04\n    /* \"Users/smidolt/new files in programming/HARDHEAD/contracts/Education/7_Trees.sol\":418:450  uint count = transactions.length */\n  swap1\n  pop\n    /* \"Users/smidolt/new files in programming/HARDHEAD/contracts/Education/7_Trees.sol\":460:471  uint offset */\n  0x00\n    /* \"Users/smidolt/new files in programming/HARDHEAD/contracts/Education/7_Trees.sol\":486:827  while(count > 0) {... */\ntag_22:\n    /* \"Users/smidolt/new files in programming/HARDHEAD/contracts/Education/7_Trees.sol\":500:501  0 */\n  0x00\n    /* \"Users/smidolt/new files in programming/HARDHEAD/contracts/Education/7_Trees.sol\":492:497  count */\n  dup3\n    /* \"Users/smidolt/new files in programming/HARDHEAD/contracts/Education/7_Trees.sol\":492:501  count > 0 */\n  gt\n    /* \"Users/smidolt/new files in programming/HARDHEAD/contracts/Education/7_Trees.sol\":486:827  while(count > 0) {... */\n  iszero\n  tag_23\n  jumpi\n    /* \"Users/smidolt/new files in programming/HARDHEAD/contracts/Education/7_Trees.sol\":521:527  uint i */\n  0x00\n    /* \"Users/smidolt/new files in programming/HARDHEAD/contracts/Education/7_Trees.sol\":517:757  for(uint i = 0; i < count - 1; i += 2) {... */\ntag_24:\n    /* \"Users/smidolt/new files in programming/HARDHEAD/contracts/Education/7_Trees.sol\":545:546  1 */\n  0x01\n    /* \"Users/smidolt/new files in programming/HARDHEAD/contracts/Education/7_Trees.sol\":537:542  count */\n  dup4\n    /* \"Users/smidolt/new files in programming/HARDHEAD/contracts/Education/7_Trees.sol\":537:546  count - 1 */\n  tag_27\n  swap2\n  swap1\n  tag_28\n  jump\t// in\ntag_27:\n    /* \"Users/smidolt/new files in programming/HARDHEAD/contracts/Education/7_Trees.sol\":533:534  i */\n  dup2\n    /* \"Users/smidolt/new files in programming/HARDHEAD/contracts/Education/7_Trees.sol\":533:546  i < count - 1 */\n  lt\n    /* \"Users/smidolt/new files in programming/HARDHEAD/contracts/Education/7_Trees.sol\":517:757  for(uint i = 0; i < count - 1; i += 2) {... */\n  iszero\n  tag_25\n  jumpi\n    /* \"Users/smidolt/new files in programming/HARDHEAD/contracts/Education/7_Trees.sol\":574:580  hashes */\n  0x00\n    /* \"Users/smidolt/new files in programming/HARDHEAD/contracts/Education/7_Trees.sol\":659:665  hashes */\n  dup1\n    /* \"Users/smidolt/new files in programming/HARDHEAD/contracts/Education/7_Trees.sol\":675:676  i */\n  dup3\n    /* \"Users/smidolt/new files in programming/HARDHEAD/contracts/Education/7_Trees.sol\":666:672  offset */\n  dup5\n    /* \"Users/smidolt/new files in programming/HARDHEAD/contracts/Education/7_Trees.sol\":666:676  offset + i */\n  tag_29\n  swap2\n  swap1\n  tag_30\n  jump\t// in\ntag_29:\n    /* \"Users/smidolt/new files in programming/HARDHEAD/contracts/Education/7_Trees.sol\":659:677  hashes[offset + i] */\n  dup2\n  sload\n  dup2\n  lt\n  tag_31\n  jumpi\n  tag_32\n  tag_12\n  jump\t// in\ntag_32:\ntag_31:\n  swap1\n  0x00\n  mstore\n  keccak256(0x00, 0x20)\n  add\n  sload\n    /* \"Users/smidolt/new files in programming/HARDHEAD/contracts/Education/7_Trees.sol\":679:685  hashes */\n  0x00\n    /* \"Users/smidolt/new files in programming/HARDHEAD/contracts/Education/7_Trees.sol\":699:700  1 */\n  0x01\n    /* \"Users/smidolt/new files in programming/HARDHEAD/contracts/Education/7_Trees.sol\":695:696  i */\n  dup5\n    /* \"Users/smidolt/new files in programming/HARDHEAD/contracts/Education/7_Trees.sol\":686:692  offset */\n  dup7\n    /* \"Users/smidolt/new files in programming/HARDHEAD/contracts/Education/7_Trees.sol\":686:696  offset + i */\n  tag_34\n  swap2\n  swap1\n  tag_30\n  jump\t// in\ntag_34:\n    /* \"Users/smidolt/new files in programming/HARDHEAD/contracts/Education/7_Trees.sol\":686:700  offset + i + 1 */\n  tag_35\n  swap2\n  swap1\n  tag_30\n  jump\t// in\ntag_35:\n    /* \"Users/smidolt/new files in programming/HARDHEAD/contracts/Education/7_Trees.sol\":679:701  hashes[offset + i + 1] */\n  dup2\n  sload\n  dup2\n  lt\n  tag_36\n  jumpi\n  tag_37\n  tag_12\n  jump\t// in\ntag_37:\ntag_36:\n  swap1\n  0x00\n  mstore\n  keccak256(0x00, 0x20)\n  add\n  sload\n    /* \"Users/smidolt/new files in programming/HARDHEAD/contracts/Education/7_Trees.sol\":617:723  abi.encodePacked(... */\n  add(0x20, mload(0x40))\n  tag_39\n  swap3\n  swap2\n  swap1\n  tag_40\n  jump\t// in\ntag_39:\n  mload(0x40)\n  0x20\n  dup2\n  dup4\n  sub\n  sub\n  dup2\n  mstore\n  swap1\n  0x40\n  mstore\n    /* \"Users/smidolt/new files in programming/HARDHEAD/contracts/Education/7_Trees.sol\":586:741  keccak256(... */\n  dup1\n  mload\n  swap1\n  0x20\n  add\n  keccak256\n    /* \"Users/smidolt/new files in programming/HARDHEAD/contracts/Education/7_Trees.sol\":574:742  hashes.push(keccak256(... */\n  swap1\n  dup1\n  0x01\n  dup2\n  sload\n  add\n  dup1\n  dup3\n  sstore\n  dup1\n  swap2\n  pop\n  pop\n  0x01\n  swap1\n  sub\n  swap1\n  0x00\n  mstore\n  keccak256(0x00, 0x20)\n  add\n  0x00\n  swap1\n  swap2\n  swap1\n  swap2\n  swap1\n  swap2\n  pop\n  sstore\n    /* \"Users/smidolt/new files in programming/HARDHEAD/contracts/Education/7_Trees.sol\":553:554  2 */\n  0x02\n    /* \"Users/smidolt/new files in programming/HARDHEAD/contracts/Education/7_Trees.sol\":548:554  i += 2 */\n  dup2\n  tag_42\n  swap2\n  swap1\n  tag_30\n  jump\t// in\ntag_42:\n  swap1\n  pop\n    /* \"Users/smidolt/new files in programming/HARDHEAD/contracts/Education/7_Trees.sol\":517:757  for(uint i = 0; i < count - 1; i += 2) {... */\n  jump(tag_24)\ntag_25:\n  pop\n    /* \"Users/smidolt/new files in programming/HARDHEAD/contracts/Education/7_Trees.sol\":780:785  count */\n  dup2\n    /* \"Users/smidolt/new files in programming/HARDHEAD/contracts/Education/7_Trees.sol\":770:785  offset += count */\n  dup2\n  tag_43\n  swap2\n  swap1\n  tag_30\n  jump\t// in\ntag_43:\n  swap1\n  pop\n    /* \"Users/smidolt/new files in programming/HARDHEAD/contracts/Education/7_Trees.sol\":815:816  2 */\n  0x02\n    /* \"Users/smidolt/new files in programming/HARDHEAD/contracts/Education/7_Trees.sol\":807:812  count */\n  dup3\n    /* \"Users/smidolt/new files in programming/HARDHEAD/contracts/Education/7_Trees.sol\":807:816  count / 2 */\n  tag_44\n  swap2\n  swap1\n  tag_45\n  jump\t// in\ntag_44:\n    /* \"Users/smidolt/new files in programming/HARDHEAD/contracts/Education/7_Trees.sol\":799:816  count = count / 2 */\n  swap2\n  pop\n    /* \"Users/smidolt/new files in programming/HARDHEAD/contracts/Education/7_Trees.sol\":486:827  while(count > 0) {... */\n  jump(tag_22)\ntag_23:\n    /* \"Users/smidolt/new files in programming/HARDHEAD/contracts/Education/7_Trees.sol\":289:833  {... */\n  pop\n  pop\n    /* \"Users/smidolt/new files in programming/HARDHEAD/contracts/Education/7_Trees.sol\":60:1642  contract Tree {... */\n  jump(tag_46)\n    /* \"Users/smidolt/new files in programming/HARDHEAD/contracts/Education/7_Trees.sol\":1502:1640  function makeHash(string memory input) public pure returns(bytes32) {... */\ntag_20:\n    /* \"Users/smidolt/new files in programming/HARDHEAD/contracts/Education/7_Trees.sol\":1561:1568  bytes32 */\n  0x00\n    /* \"Users/smidolt/new files in programming/HARDHEAD/contracts/Education/7_Trees.sol\":1610:1623  encode(input) */\n  tag_48\n    /* \"Users/smidolt/new files in programming/HARDHEAD/contracts/Education/7_Trees.sol\":1617:1622  input */\n  dup3\n    /* \"Users/smidolt/new files in programming/HARDHEAD/contracts/Education/7_Trees.sol\":1610:1616  encode */\n  shl(0x20, tag_49)\n    /* \"Users/smidolt/new files in programming/HARDHEAD/contracts/Education/7_Trees.sol\":1610:1623  encode(input) */\n  0x20\n  shr\n  jump\t// in\ntag_48:\n    /* \"Users/smidolt/new files in programming/HARDHEAD/contracts/Education/7_Trees.sol\":1587:1633  keccak256(... */\n  dup1\n  mload\n  swap1\n  0x20\n  add\n  keccak256\n    /* \"Users/smidolt/new files in programming/HARDHEAD/contracts/Education/7_Trees.sol\":1580:1633  return keccak256(... */\n  swap1\n  pop\n    /* \"Users/smidolt/new files in programming/HARDHEAD/contracts/Education/7_Trees.sol\":1502:1640  function makeHash(string memory input) public pure returns(bytes32) {... */\n  swap2\n  swap1\n  pop\n  jump\t// out\n    /* \"Users/smidolt/new files in programming/HARDHEAD/contracts/Education/7_Trees.sol\":1378:1496  function encode(string memory input) public pure returns(bytes memory) {... */\ntag_49:\n    /* \"Users/smidolt/new files in programming/HARDHEAD/contracts/Education/7_Trees.sol\":1435:1447  bytes memory */\n  0x60\n    /* \"Users/smidolt/new files in programming/HARDHEAD/contracts/Education/7_Trees.sol\":1483:1488  input */\n  dup2\n    /* \"Users/smidolt/new files in programming/HARDHEAD/contracts/Education/7_Trees.sol\":1466:1489  abi.encodePacked(input) */\n  add(0x20, mload(0x40))\n  tag_51\n  swap2\n  swap1\n  tag_52\n  jump\t// in\ntag_51:\n  mload(0x40)\n  0x20\n  dup2\n  dup4\n  sub\n  sub\n  dup2\n  mstore\n  swap1\n  0x40\n  mstore\n    /* \"Users/smidolt/new files in programming/HARDHEAD/contracts/Education/7_Trees.sol\":1459:1489  return abi.encodePacked(input) */\n  swap1\n  pop\n    /* \"Users/smidolt/new files in programming/HARDHEAD/contracts/Education/7_Trees.sol\":1378:1496  function encode(string memory input) public pure returns(bytes memory) {... */\n  swap2\n  swap1\n  pop\n  jump\t// out\n    /* \"Users/smidolt/new files in programming/HARDHEAD/contracts/Education/7_Trees.sol\":60:1642  contract Tree {... */\ntag_2:\n  dup3\n  0x04\n  dup2\n  add\n  swap3\n  dup3\n  iszero\n  tag_53\n  jumpi\n  swap2\n  0x20\n  mul\n  dup3\n  add\ntag_54:\n  dup3\n  dup2\n  gt\n  iszero\n  tag_55\n  jumpi\n  dup3\n  mload\n  dup3\n  swap1\n  dup2\n  tag_56\n  swap2\n  swap1\n  tag_57\n  jump\t// in\ntag_56:\n  pop\n  swap2\n  0x20\n  add\n  swap2\n  swap1\n  0x01\n  add\n  swap1\n  jump(tag_54)\ntag_55:\ntag_53:\n  pop\n  swap1\n  pop\n  tag_58\n  swap2\n  swap1\n  tag_59\n  jump\t// in\ntag_58:\n  pop\n  swap1\n  jump\t// out\ntag_59:\ntag_60:\n  dup1\n  dup3\n  gt\n  iszero\n  tag_61\n  jumpi\n  0x00\n  dup2\n  dup2\n  tag_62\n  swap2\n  swap1\n  tag_63\n  jump\t// in\ntag_62:\n  pop\n  0x01\n  add\n  jump(tag_60)\ntag_61:\n  pop\n  swap1\n  jump\t// out\ntag_63:\n  pop\n  dup1\n  sload\n  tag_64\n  swap1\n  tag_15\n  jump\t// in\ntag_64:\n  0x00\n  dup3\n  sstore\n  dup1\n  0x1f\n  lt\n  tag_66\n  jumpi\n  pop\n  jump(tag_65)\ntag_66:\n  0x1f\n  add\n  0x20\n  swap1\n  div\n  swap1\n  0x00\n  mstore\n  keccak256(0x00, 0x20)\n  swap1\n  dup2\n  add\n  swap1\n  tag_67\n  swap2\n  swap1\n  tag_68\n  jump\t// in\ntag_67:\ntag_65:\n  pop\n  jump\t// out\ntag_68:\ntag_69:\n  dup1\n  dup3\n  gt\n  iszero\n  tag_70\n  jumpi\n  0x00\n  dup2\n  0x00\n  swap1\n  sstore\n  pop\n  0x01\n  add\n  jump(tag_69)\ntag_70:\n  pop\n  swap1\n  jump\t// out\n    /* \"#utility.yul\":7:187   */\ntag_12:\n    /* \"#utility.yul\":55:132   */\n  0x4e487b7100000000000000000000000000000000000000000000000000000000\n    /* \"#utility.yul\":52:53   */\n  0x00\n    /* \"#utility.yul\":45:133   */\n  mstore\n    /* \"#utility.yul\":152:156   */\n  0x32\n    /* \"#utility.yul\":149:150   */\n  0x04\n    /* \"#utility.yul\":142:157   */\n  mstore\n    /* \"#utility.yul\":176:180   */\n  0x24\n    /* \"#utility.yul\":173:174   */\n  0x00\n    /* \"#utility.yul\":166:181   */\n  revert\n    /* \"#utility.yul\":193:373   */\ntag_71:\n    /* \"#utility.yul\":241:318   */\n  0x4e487b7100000000000000000000000000000000000000000000000000000000\n    /* \"#utility.yul\":238:239   */\n  0x00\n    /* \"#utility.yul\":231:319   */\n  mstore\n    /* \"#utility.yul\":338:342   */\n  0x22\n    /* \"#utility.yul\":335:336   */\n  0x04\n    /* \"#utility.yul\":328:343   */\n  mstore\n    /* \"#utility.yul\":362:366   */\n  0x24\n    /* \"#utility.yul\":359:360   */\n  0x00\n    /* \"#utility.yul\":352:367   */\n  revert\n    /* \"#utility.yul\":379:699   */\ntag_15:\n    /* \"#utility.yul\":423:429   */\n  0x00\n    /* \"#utility.yul\":460:461   */\n  0x02\n    /* \"#utility.yul\":454:458   */\n  dup3\n    /* \"#utility.yul\":450:462   */\n  div\n    /* \"#utility.yul\":440:462   */\n  swap1\n  pop\n    /* \"#utility.yul\":507:508   */\n  0x01\n    /* \"#utility.yul\":501:505   */\n  dup3\n    /* \"#utility.yul\":497:509   */\n  and\n    /* \"#utility.yul\":528:546   */\n  dup1\n    /* \"#utility.yul\":518:599   */\n  tag_102\n  jumpi\n    /* \"#utility.yul\":584:588   */\n  0x7f\n    /* \"#utility.yul\":576:582   */\n  dup3\n    /* \"#utility.yul\":572:589   */\n  and\n    /* \"#utility.yul\":562:589   */\n  swap2\n  pop\n    /* \"#utility.yul\":518:599   */\ntag_102:\n    /* \"#utility.yul\":646:648   */\n  0x20\n    /* \"#utility.yul\":638:644   */\n  dup3\n    /* \"#utility.yul\":635:649   */\n  lt\n    /* \"#utility.yul\":615:633   */\n  dup2\n    /* \"#utility.yul\":612:650   */\n  sub\n    /* \"#utility.yul\":609:693   */\n  tag_103\n  jumpi\n    /* \"#utility.yul\":665:683   */\n  tag_104\n  tag_71\n  jump\t// in\ntag_104:\n    /* \"#utility.yul\":609:693   */\ntag_103:\n    /* \"#utility.yul\":430:699   */\n  pop\n    /* \"#utility.yul\":379:699   */\n  swap2\n  swap1\n  pop\n  jump\t// out\n    /* \"#utility.yul\":705:782   */\ntag_72:\n    /* \"#utility.yul\":742:749   */\n  0x00\n    /* \"#utility.yul\":771:776   */\n  dup2\n    /* \"#utility.yul\":760:776   */\n  swap1\n  pop\n    /* \"#utility.yul\":705:782   */\n  swap2\n  swap1\n  pop\n  jump\t// out\n    /* \"#utility.yul\":788:968   */\ntag_73:\n    /* \"#utility.yul\":836:913   */\n  0x4e487b7100000000000000000000000000000000000000000000000000000000\n    /* \"#utility.yul\":833:834   */\n  0x00\n    /* \"#utility.yul\":826:914   */\n  mstore\n    /* \"#utility.yul\":933:937   */\n  0x11\n    /* \"#utility.yul\":930:931   */\n  0x04\n    /* \"#utility.yul\":923:938   */\n  mstore\n    /* \"#utility.yul\":957:961   */\n  0x24\n    /* \"#utility.yul\":954:955   */\n  0x00\n    /* \"#utility.yul\":947:962   */\n  revert\n    /* \"#utility.yul\":974:1168   */\ntag_28:\n    /* \"#utility.yul\":1014:1018   */\n  0x00\n    /* \"#utility.yul\":1034:1054   */\n  tag_108\n    /* \"#utility.yul\":1052:1053   */\n  dup3\n    /* \"#utility.yul\":1034:1054   */\n  tag_72\n  jump\t// in\ntag_108:\n    /* \"#utility.yul\":1029:1054   */\n  swap2\n  pop\n    /* \"#utility.yul\":1068:1088   */\n  tag_109\n    /* \"#utility.yul\":1086:1087   */\n  dup4\n    /* \"#utility.yul\":1068:1088   */\n  tag_72\n  jump\t// in\ntag_109:\n    /* \"#utility.yul\":1063:1088   */\n  swap3\n  pop\n    /* \"#utility.yul\":1112:1113   */\n  dup3\n    /* \"#utility.yul\":1109:1110   */\n  dup3\n    /* \"#utility.yul\":1105:1114   */\n  sub\n    /* \"#utility.yul\":1097:1114   */\n  swap1\n  pop\n    /* \"#utility.yul\":1136:1137   */\n  dup2\n    /* \"#utility.yul\":1130:1134   */\n  dup2\n    /* \"#utility.yul\":1127:1138   */\n  gt\n    /* \"#utility.yul\":1124:1161   */\n  iszero\n  tag_110\n  jumpi\n    /* \"#utility.yul\":1141:1159   */\n  tag_111\n  tag_73\n  jump\t// in\ntag_111:\n    /* \"#utility.yul\":1124:1161   */\ntag_110:\n    /* \"#utility.yul\":974:1168   */\n  swap3\n  swap2\n  pop\n  pop\n  jump\t// out\n    /* \"#utility.yul\":1174:1365   */\ntag_30:\n    /* \"#utility.yul\":1214:1217   */\n  0x00\n    /* \"#utility.yul\":1233:1253   */\n  tag_113\n    /* \"#utility.yul\":1251:1252   */\n  dup3\n    /* \"#utility.yul\":1233:1253   */\n  tag_72\n  jump\t// in\ntag_113:\n    /* \"#utility.yul\":1228:1253   */\n  swap2\n  pop\n    /* \"#utility.yul\":1267:1287   */\n  tag_114\n    /* \"#utility.yul\":1285:1286   */\n  dup4\n    /* \"#utility.yul\":1267:1287   */\n  tag_72\n  jump\t// in\ntag_114:\n    /* \"#utility.yul\":1262:1287   */\n  swap3\n  pop\n    /* \"#utility.yul\":1310:1311   */\n  dup3\n    /* \"#utility.yul\":1307:1308   */\n  dup3\n    /* \"#utility.yul\":1303:1312   */\n  add\n    /* \"#utility.yul\":1296:1312   */\n  swap1\n  pop\n    /* \"#utility.yul\":1331:1334   */\n  dup1\n    /* \"#utility.yul\":1328:1329   */\n  dup3\n    /* \"#utility.yul\":1325:1335   */\n  gt\n    /* \"#utility.yul\":1322:1358   */\n  iszero\n  tag_115\n  jumpi\n    /* \"#utility.yul\":1338:1356   */\n  tag_116\n  tag_73\n  jump\t// in\ntag_116:\n    /* \"#utility.yul\":1322:1358   */\ntag_115:\n    /* \"#utility.yul\":1174:1365   */\n  swap3\n  swap2\n  pop\n  pop\n  jump\t// out\n    /* \"#utility.yul\":1371:1448   */\ntag_74:\n    /* \"#utility.yul\":1408:1415   */\n  0x00\n    /* \"#utility.yul\":1437:1442   */\n  dup2\n    /* \"#utility.yul\":1426:1442   */\n  swap1\n  pop\n    /* \"#utility.yul\":1371:1448   */\n  swap2\n  swap1\n  pop\n  jump\t// out\n    /* \"#utility.yul\":1454:1533   */\ntag_75:\n    /* \"#utility.yul\":1493:1500   */\n  0x00\n    /* \"#utility.yul\":1522:1527   */\n  dup2\n    /* \"#utility.yul\":1511:1527   */\n  swap1\n  pop\n    /* \"#utility.yul\":1454:1533   */\n  swap2\n  swap1\n  pop\n  jump\t// out\n    /* \"#utility.yul\":1539:1696   */\ntag_76:\n    /* \"#utility.yul\":1644:1689   */\n  tag_120\n    /* \"#utility.yul\":1664:1688   */\n  tag_121\n    /* \"#utility.yul\":1682:1687   */\n  dup3\n    /* \"#utility.yul\":1664:1688   */\n  tag_74\n  jump\t// in\ntag_121:\n    /* \"#utility.yul\":1644:1689   */\n  tag_75\n  jump\t// in\ntag_120:\n    /* \"#utility.yul\":1639:1642   */\n  dup3\n    /* \"#utility.yul\":1632:1690   */\n  mstore\n    /* \"#utility.yul\":1539:1696   */\n  pop\n  pop\n  jump\t// out\n    /* \"#utility.yul\":1702:2099   */\ntag_40:\n    /* \"#utility.yul\":1842:1845   */\n  0x00\n    /* \"#utility.yul\":1857:1932   */\n  tag_123\n    /* \"#utility.yul\":1928:1931   */\n  dup3\n    /* \"#utility.yul\":1919:1925   */\n  dup6\n    /* \"#utility.yul\":1857:1932   */\n  tag_76\n  jump\t// in\ntag_123:\n    /* \"#utility.yul\":1957:1959   */\n  0x20\n    /* \"#utility.yul\":1952:1955   */\n  dup3\n    /* \"#utility.yul\":1948:1960   */\n  add\n    /* \"#utility.yul\":1941:1960   */\n  swap2\n  pop\n    /* \"#utility.yul\":1970:2045   */\n  tag_124\n    /* \"#utility.yul\":2041:2044   */\n  dup3\n    /* \"#utility.yul\":2032:2038   */\n  dup5\n    /* \"#utility.yul\":1970:2045   */\n  tag_76\n  jump\t// in\ntag_124:\n    /* \"#utility.yul\":2070:2072   */\n  0x20\n    /* \"#utility.yul\":2065:2068   */\n  dup3\n    /* \"#utility.yul\":2061:2073   */\n  add\n    /* \"#utility.yul\":2054:2073   */\n  swap2\n  pop\n    /* \"#utility.yul\":2090:2093   */\n  dup2\n    /* \"#utility.yul\":2083:2093   */\n  swap1\n  pop\n    /* \"#utility.yul\":1702:2099   */\n  swap4\n  swap3\n  pop\n  pop\n  pop\n  jump\t// out\n    /* \"#utility.yul\":2105:2285   */\ntag_77:\n    /* \"#utility.yul\":2153:2230   */\n  0x4e487b7100000000000000000000000000000000000000000000000000000000\n    /* \"#utility.yul\":2150:2151   */\n  0x00\n    /* \"#utility.yul\":2143:2231   */\n  mstore\n    /* \"#utility.yul\":2250:2254   */\n  0x12\n    /* \"#utility.yul\":2247:2248   */\n  0x04\n    /* \"#utility.yul\":2240:2255   */\n  mstore\n    /* \"#utility.yul\":2274:2278   */\n  0x24\n    /* \"#utility.yul\":2271:2272   */\n  0x00\n    /* \"#utility.yul\":2264:2279   */\n  revert\n    /* \"#utility.yul\":2291:2476   */\ntag_45:\n    /* \"#utility.yul\":2331:2332   */\n  0x00\n    /* \"#utility.yul\":2348:2368   */\n  tag_127\n    /* \"#utility.yul\":2366:2367   */\n  dup3\n    /* \"#utility.yul\":2348:2368   */\n  tag_72\n  jump\t// in\ntag_127:\n    /* \"#utility.yul\":2343:2368   */\n  swap2\n  pop\n    /* \"#utility.yul\":2382:2402   */\n  tag_128\n    /* \"#utility.yul\":2400:2401   */\n  dup4\n    /* \"#utility.yul\":2382:2402   */\n  tag_72\n  jump\t// in\ntag_128:\n    /* \"#utility.yul\":2377:2402   */\n  swap3\n  pop\n    /* \"#utility.yul\":2421:2422   */\n  dup3\n    /* \"#utility.yul\":2411:2446   */\n  tag_129\n  jumpi\n    /* \"#utility.yul\":2426:2444   */\n  tag_130\n  tag_77\n  jump\t// in\ntag_130:\n    /* \"#utility.yul\":2411:2446   */\ntag_129:\n    /* \"#utility.yul\":2468:2469   */\n  dup3\n    /* \"#utility.yul\":2465:2466   */\n  dup3\n    /* \"#utility.yul\":2461:2470   */\n  div\n    /* \"#utility.yul\":2456:2470   */\n  swap1\n  pop\n    /* \"#utility.yul\":2291:2476   */\n  swap3\n  swap2\n  pop\n  pop\n  jump\t// out\n    /* \"#utility.yul\":2482:2581   */\ntag_78:\n    /* \"#utility.yul\":2534:2540   */\n  0x00\n    /* \"#utility.yul\":2568:2573   */\n  dup2\n    /* \"#utility.yul\":2562:2574   */\n  mload\n    /* \"#utility.yul\":2552:2574   */\n  swap1\n  pop\n    /* \"#utility.yul\":2482:2581   */\n  swap2\n  swap1\n  pop\n  jump\t// out\n    /* \"#utility.yul\":2587:2735   */\ntag_79:\n    /* \"#utility.yul\":2689:2700   */\n  0x00\n    /* \"#utility.yul\":2726:2729   */\n  dup2\n    /* \"#utility.yul\":2711:2729   */\n  swap1\n  pop\n    /* \"#utility.yul\":2587:2735   */\n  swap3\n  swap2\n  pop\n  pop\n  jump\t// out\n    /* \"#utility.yul\":2741:2880   */\ntag_80:\n    /* \"#utility.yul\":2830:2836   */\n  dup3\n    /* \"#utility.yul\":2825:2828   */\n  dup2\n    /* \"#utility.yul\":2820:2823   */\n  dup4\n    /* \"#utility.yul\":2814:2837   */\n  mcopy\n    /* \"#utility.yul\":2871:2872   */\n  0x00\n    /* \"#utility.yul\":2862:2868   */\n  dup4\n    /* \"#utility.yul\":2857:2860   */\n  dup4\n    /* \"#utility.yul\":2853:2869   */\n  add\n    /* \"#utility.yul\":2846:2873   */\n  mstore\n    /* \"#utility.yul\":2741:2880   */\n  pop\n  pop\n  pop\n  jump\t// out\n    /* \"#utility.yul\":2886:3276   */\ntag_81:\n    /* \"#utility.yul\":2992:2995   */\n  0x00\n    /* \"#utility.yul\":3020:3059   */\n  tag_135\n    /* \"#utility.yul\":3053:3058   */\n  dup3\n    /* \"#utility.yul\":3020:3059   */\n  tag_78\n  jump\t// in\ntag_135:\n    /* \"#utility.yul\":3075:3164   */\n  tag_136\n    /* \"#utility.yul\":3157:3163   */\n  dup2\n    /* \"#utility.yul\":3152:3155   */\n  dup6\n    /* \"#utility.yul\":3075:3164   */\n  tag_79\n  jump\t// in\ntag_136:\n    /* \"#utility.yul\":3068:3164   */\n  swap4\n  pop\n    /* \"#utility.yul\":3173:3238   */\n  tag_137\n    /* \"#utility.yul\":3231:3237   */\n  dup2\n    /* \"#utility.yul\":3226:3229   */\n  dup6\n    /* \"#utility.yul\":3219:3223   */\n  0x20\n    /* \"#utility.yul\":3212:3217   */\n  dup7\n    /* \"#utility.yul\":3208:3224   */\n  add\n    /* \"#utility.yul\":3173:3238   */\n  tag_80\n  jump\t// in\ntag_137:\n    /* \"#utility.yul\":3263:3269   */\n  dup1\n    /* \"#utility.yul\":3258:3261   */\n  dup5\n    /* \"#utility.yul\":3254:3270   */\n  add\n    /* \"#utility.yul\":3247:3270   */\n  swap2\n  pop\n    /* \"#utility.yul\":2996:3276   */\n  pop\n    /* \"#utility.yul\":2886:3276   */\n  swap3\n  swap2\n  pop\n  pop\n  jump\t// out\n    /* \"#utility.yul\":3282:3557   */\ntag_52:\n    /* \"#utility.yul\":3414:3417   */\n  0x00\n    /* \"#utility.yul\":3436:3531   */\n  tag_139\n    /* \"#utility.yul\":3527:3530   */\n  dup3\n    /* \"#utility.yul\":3518:3524   */\n  dup5\n    /* \"#utility.yul\":3436:3531   */\n  tag_81\n  jump\t// in\ntag_139:\n    /* \"#utility.yul\":3429:3531   */\n  swap2\n  pop\n    /* \"#utility.yul\":3548:3551   */\n  dup2\n    /* \"#utility.yul\":3541:3551   */\n  swap1\n  pop\n    /* \"#utility.yul\":3282:3557   */\n  swap3\n  swap2\n  pop\n  pop\n  jump\t// out\n    /* \"#utility.yul\":3563:3743   */\ntag_82:\n    /* \"#utility.yul\":3611:3688   */\n  0x4e487b7100000000000000000000000000000000000000000000000000000000\n    /* \"#utility.yul\":3608:3609   */\n  0x00\n    /* \"#utility.yul\":3601:3689   */\n  mstore\n    /* \"#utility.yul\":3708:3712   */\n  0x41\n    /* \"#utility.yul\":3705:3706   */\n  0x04\n    /* \"#utility.yul\":3698:3713   */\n  mstore\n    /* \"#utility.yul\":3732:3736   */\n  0x24\n    /* \"#utility.yul\":3729:3730   */\n  0x00\n    /* \"#utility.yul\":3722:3737   */\n  revert\n    /* \"#utility.yul\":3749:3890   */\ntag_83:\n    /* \"#utility.yul\":3798:3802   */\n  0x00\n    /* \"#utility.yul\":3821:3824   */\n  dup2\n    /* \"#utility.yul\":3813:3824   */\n  swap1\n  pop\n    /* \"#utility.yul\":3844:3847   */\n  dup2\n    /* \"#utility.yul\":3841:3842   */\n  0x00\n    /* \"#utility.yul\":3834:3848   */\n  mstore\n    /* \"#utility.yul\":3878:3882   */\n  0x20\n    /* \"#utility.yul\":3875:3876   */\n  0x00\n    /* \"#utility.yul\":3865:3883   */\n  keccak256\n    /* \"#utility.yul\":3857:3883   */\n  swap1\n  pop\n    /* \"#utility.yul\":3749:3890   */\n  swap2\n  swap1\n  pop\n  jump\t// out\n    /* \"#utility.yul\":3896:3989   */\ntag_84:\n    /* \"#utility.yul\":3933:3939   */\n  0x00\n    /* \"#utility.yul\":3980:3982   */\n  0x20\n    /* \"#utility.yul\":3975:3977   */\n  0x1f\n    /* \"#utility.yul\":3968:3973   */\n  dup4\n    /* \"#utility.yul\":3964:3978   */\n  add\n    /* \"#utility.yul\":3960:3983   */\n  div\n    /* \"#utility.yul\":3950:3983   */\n  swap1\n  pop\n    /* \"#utility.yul\":3896:3989   */\n  swap2\n  swap1\n  pop\n  jump\t// out\n    /* \"#utility.yul\":3995:4102   */\ntag_85:\n    /* \"#utility.yul\":4039:4047   */\n  0x00\n    /* \"#utility.yul\":4089:4094   */\n  dup3\n    /* \"#utility.yul\":4083:4087   */\n  dup3\n    /* \"#utility.yul\":4079:4095   */\n  shl\n    /* \"#utility.yul\":4058:4095   */\n  swap1\n  pop\n    /* \"#utility.yul\":3995:4102   */\n  swap3\n  swap2\n  pop\n  pop\n  jump\t// out\n    /* \"#utility.yul\":4108:4501   */\ntag_86:\n    /* \"#utility.yul\":4177:4183   */\n  0x00\n    /* \"#utility.yul\":4227:4228   */\n  0x08\n    /* \"#utility.yul\":4215:4225   */\n  dup4\n    /* \"#utility.yul\":4211:4229   */\n  mul\n    /* \"#utility.yul\":4250:4347   */\n  tag_145\n    /* \"#utility.yul\":4280:4346   */\n  0xffffffffffffffffffffffffffffffffffffffffffffffffffffffffffffffff\n    /* \"#utility.yul\":4269:4278   */\n  dup3\n    /* \"#utility.yul\":4250:4347   */\n  tag_85\n  jump\t// in\ntag_145:\n    /* \"#utility.yul\":4368:4407   */\n  tag_146\n    /* \"#utility.yul\":4398:4406   */\n  dup7\n    /* \"#utility.yul\":4387:4396   */\n  dup4\n    /* \"#utility.yul\":4368:4407   */\n  tag_85\n  jump\t// in\ntag_146:\n    /* \"#utility.yul\":4356:4407   */\n  swap6\n  pop\n    /* \"#utility.yul\":4440:4444   */\n  dup1\n    /* \"#utility.yul\":4436:4445   */\n  not\n    /* \"#utility.yul\":4429:4434   */\n  dup5\n    /* \"#utility.yul\":4425:4446   */\n  and\n    /* \"#utility.yul\":4416:4446   */\n  swap4\n  pop\n    /* \"#utility.yul\":4489:4493   */\n  dup1\n    /* \"#utility.yul\":4479:4487   */\n  dup7\n    /* \"#utility.yul\":4475:4494   */\n  and\n    /* \"#utility.yul\":4468:4473   */\n  dup5\n    /* \"#utility.yul\":4465:4495   */\n  or\n    /* \"#utility.yul\":4455:4495   */\n  swap3\n  pop\n    /* \"#utility.yul\":4184:4501   */\n  pop\n  pop\n    /* \"#utility.yul\":4108:4501   */\n  swap4\n  swap3\n  pop\n  pop\n  pop\n  jump\t// out\n    /* \"#utility.yul\":4507:4567   */\ntag_87:\n    /* \"#utility.yul\":4535:4538   */\n  0x00\n    /* \"#utility.yul\":4556:4561   */\n  dup2\n    /* \"#utility.yul\":4549:4561   */\n  swap1\n  pop\n    /* \"#utility.yul\":4507:4567   */\n  swap2\n  swap1\n  pop\n  jump\t// out\n    /* \"#utility.yul\":4573:4715   */\ntag_88:\n    /* \"#utility.yul\":4623:4632   */\n  0x00\n    /* \"#utility.yul\":4656:4709   */\n  tag_149\n    /* \"#utility.yul\":4674:4708   */\n  tag_150\n    /* \"#utility.yul\":4683:4707   */\n  tag_151\n    /* \"#utility.yul\":4701:4706   */\n  dup5\n    /* \"#utility.yul\":4683:4707   */\n  tag_72\n  jump\t// in\ntag_151:\n    /* \"#utility.yul\":4674:4708   */\n  tag_87\n  jump\t// in\ntag_150:\n    /* \"#utility.yul\":4656:4709   */\n  tag_72\n  jump\t// in\ntag_149:\n    /* \"#utility.yul\":4643:4709   */\n  swap1\n  pop\n    /* \"#utility.yul\":4573:4715   */\n  swap2\n  swap1\n  pop\n  jump\t// out\n    /* \"#utility.yul\":4721:4796   */\ntag_89:\n    /* \"#utility.yul\":4764:4767   */\n  0x00\n    /* \"#utility.yul\":4785:4790   */\n  dup2\n    /* \"#utility.yul\":4778:4790   */\n  swap1\n  pop\n    /* \"#utility.yul\":4721:4796   */\n  swap2\n  swap1\n  pop\n  jump\t// out\n    /* \"#utility.yul\":4802:5071   */\ntag_90:\n    /* \"#utility.yul\":4912:4951   */\n  tag_154\n    /* \"#utility.yul\":4943:4950   */\n  dup4\n    /* \"#utility.yul\":4912:4951   */\n  tag_88\n  jump\t// in\ntag_154:\n    /* \"#utility.yul\":4973:5064   */\n  tag_155\n    /* \"#utility.yul\":5022:5063   */\n  tag_156\n    /* \"#utility.yul\":5046:5062   */\n  dup3\n    /* \"#utility.yul\":5022:5063   */\n  tag_89\n  jump\t// in\ntag_156:\n    /* \"#utility.yul\":5014:5020   */\n  dup5\n    /* \"#utility.yul\":5007:5011   */\n  dup5\n    /* \"#utility.yul\":5001:5012   */\n  sload\n    /* \"#utility.yul\":4973:5064   */\n  tag_86\n  jump\t// in\ntag_155:\n    /* \"#utility.yul\":4967:4971   */\n  dup3\n    /* \"#utility.yul\":4960:5065   */\n  sstore\n    /* \"#utility.yul\":4878:5071   */\n  pop\n    /* \"#utility.yul\":4802:5071   */\n  pop\n  pop\n  pop\n  jump\t// out\n    /* \"#utility.yul\":5077:5150   */\ntag_91:\n    /* \"#utility.yul\":5122:5125   */\n  0x00\n    /* \"#utility.yul\":5077:5150   */\n  swap1\n  jump\t// out\n    /* \"#utility.yul\":5156:5345   */\ntag_92:\n    /* \"#utility.yul\":5233:5265   */\n  tag_159\n  tag_91\n  jump\t// in\ntag_159:\n    /* \"#utility.yul\":5274:5339   */\n  tag_160\n    /* \"#utility.yul\":5332:5338   */\n  dup2\n    /* \"#utility.yul\":5324:5330   */\n  dup5\n    /* \"#utility.yul\":5318:5322   */\n  dup5\n    /* \"#utility.yul\":5274:5339   */\n  tag_90\n  jump\t// in\ntag_160:\n    /* \"#utility.yul\":5209:5345   */\n  pop\n    /* \"#utility.yul\":5156:5345   */\n  pop\n  pop\n  jump\t// out\n    /* \"#utility.yul\":5351:5537   */\ntag_93:\n    /* \"#utility.yul\":5411:5531   */\ntag_162:\n    /* \"#utility.yul\":5428:5431   */\n  dup2\n    /* \"#utility.yul\":5421:5426   */\n  dup2\n    /* \"#utility.yul\":5418:5432   */\n  lt\n    /* \"#utility.yul\":5411:5531   */\n  iszero\n  tag_164\n  jumpi\n    /* \"#utility.yul\":5482:5521   */\n  tag_165\n    /* \"#utility.yul\":5519:5520   */\n  0x00\n    /* \"#utility.yul\":5512:5517   */\n  dup3\n    /* \"#utility.yul\":5482:5521   */\n  tag_92\n  jump\t// in\ntag_165:\n    /* \"#utility.yul\":5455:5456   */\n  0x01\n    /* \"#utility.yul\":5448:5453   */\n  dup2\n    /* \"#utility.yul\":5444:5457   */\n  add\n    /* \"#utility.yul\":5435:5457   */\n  swap1\n  pop\n    /* \"#utility.yul\":5411:5531   */\n  jump(tag_162)\ntag_164:\n    /* \"#utility.yul\":5351:5537   */\n  pop\n  pop\n  jump\t// out\n    /* \"#utility.yul\":5543:6086   */\ntag_94:\n    /* \"#utility.yul\":5644:5646   */\n  0x1f\n    /* \"#utility.yul\":5639:5642   */\n  dup3\n    /* \"#utility.yul\":5636:5647   */\n  gt\n    /* \"#utility.yul\":5633:6079   */\n  iszero\n  tag_167\n  jumpi\n    /* \"#utility.yul\":5678:5716   */\n  tag_168\n    /* \"#utility.yul\":5710:5715   */\n  dup2\n    /* \"#utility.yul\":5678:5716   */\n  tag_83\n  jump\t// in\ntag_168:\n    /* \"#utility.yul\":5762:5791   */\n  tag_169\n    /* \"#utility.yul\":5780:5790   */\n  dup5\n    /* \"#utility.yul\":5762:5791   */\n  tag_84\n  jump\t// in\ntag_169:\n    /* \"#utility.yul\":5752:5760   */\n  dup2\n    /* \"#utility.yul\":5748:5792   */\n  add\n    /* \"#utility.yul\":5945:5947   */\n  0x20\n    /* \"#utility.yul\":5933:5943   */\n  dup6\n    /* \"#utility.yul\":5930:5948   */\n  lt\n    /* \"#utility.yul\":5927:5976   */\n  iszero\n  tag_170\n  jumpi\n    /* \"#utility.yul\":5966:5974   */\n  dup2\n    /* \"#utility.yul\":5951:5974   */\n  swap1\n  pop\n    /* \"#utility.yul\":5927:5976   */\ntag_170:\n    /* \"#utility.yul\":5989:6069   */\n  tag_171\n    /* \"#utility.yul\":6045:6067   */\n  tag_172\n    /* \"#utility.yul\":6063:6066   */\n  dup6\n    /* \"#utility.yul\":6045:6067   */\n  tag_84\n  jump\t// in\ntag_172:\n    /* \"#utility.yul\":6035:6043   */\n  dup4\n    /* \"#utility.yul\":6031:6068   */\n  add\n    /* \"#utility.yul\":6018:6029   */\n  dup3\n    /* \"#utility.yul\":5989:6069   */\n  tag_93\n  jump\t// in\ntag_171:\n    /* \"#utility.yul\":5648:6079   */\n  pop\n  pop\n    /* \"#utility.yul\":5633:6079   */\ntag_167:\n    /* \"#utility.yul\":5543:6086   */\n  pop\n  pop\n  pop\n  jump\t// out\n    /* \"#utility.yul\":6092:6209   */\ntag_95:\n    /* \"#utility.yul\":6146:6154   */\n  0x00\n    /* \"#utility.yul\":6196:6201   */\n  dup3\n    /* \"#utility.yul\":6190:6194   */\n  dup3\n    /* \"#utility.yul\":6186:6202   */\n  shr\n    /* \"#utility.yul\":6165:6202   */\n  swap1\n  pop\n    /* \"#utility.yul\":6092:6209   */\n  swap3\n  swap2\n  pop\n  pop\n  jump\t// out\n    /* \"#utility.yul\":6215:6384   */\ntag_96:\n    /* \"#utility.yul\":6259:6265   */\n  0x00\n    /* \"#utility.yul\":6292:6343   */\n  tag_175\n    /* \"#utility.yul\":6340:6341   */\n  0x00\n    /* \"#utility.yul\":6336:6342   */\n  not\n    /* \"#utility.yul\":6328:6333   */\n  dup5\n    /* \"#utility.yul\":6325:6326   */\n  0x08\n    /* \"#utility.yul\":6321:6334   */\n  mul\n    /* \"#utility.yul\":6292:6343   */\n  tag_95\n  jump\t// in\ntag_175:\n    /* \"#utility.yul\":6288:6344   */\n  not\n    /* \"#utility.yul\":6373:6377   */\n  dup1\n    /* \"#utility.yul\":6367:6371   */\n  dup4\n    /* \"#utility.yul\":6363:6378   */\n  and\n    /* \"#utility.yul\":6353:6378   */\n  swap2\n  pop\n    /* \"#utility.yul\":6266:6384   */\n  pop\n    /* \"#utility.yul\":6215:6384   */\n  swap3\n  swap2\n  pop\n  pop\n  jump\t// out\n    /* \"#utility.yul\":6389:6684   */\ntag_97:\n    /* \"#utility.yul\":6465:6469   */\n  0x00\n    /* \"#utility.yul\":6611:6640   */\n  tag_177\n    /* \"#utility.yul\":6636:6639   */\n  dup4\n    /* \"#utility.yul\":6630:6634   */\n  dup4\n    /* \"#utility.yul\":6611:6640   */\n  tag_96\n  jump\t// in\ntag_177:\n    /* \"#utility.yul\":6603:6640   */\n  swap2\n  pop\n    /* \"#utility.yul\":6673:6676   */\n  dup3\n    /* \"#utility.yul\":6670:6671   */\n  0x02\n    /* \"#utility.yul\":6666:6677   */\n  mul\n    /* \"#utility.yul\":6660:6664   */\n  dup3\n    /* \"#utility.yul\":6657:6678   */\n  or\n    /* \"#utility.yul\":6649:6678   */\n  swap1\n  pop\n    /* \"#utility.yul\":6389:6684   */\n  swap3\n  swap2\n  pop\n  pop\n  jump\t// out\n    /* \"#utility.yul\":6689:8084   */\ntag_57:\n    /* \"#utility.yul\":6806:6843   */\n  tag_179\n    /* \"#utility.yul\":6839:6842   */\n  dup3\n    /* \"#utility.yul\":6806:6843   */\n  tag_78\n  jump\t// in\ntag_179:\n    /* \"#utility.yul\":6908:6926   */\n  0xffffffffffffffff\n    /* \"#utility.yul\":6900:6906   */\n  dup2\n    /* \"#utility.yul\":6897:6927   */\n  gt\n    /* \"#utility.yul\":6894:6950   */\n  iszero\n  tag_180\n  jumpi\n    /* \"#utility.yul\":6930:6948   */\n  tag_181\n  tag_82\n  jump\t// in\ntag_181:\n    /* \"#utility.yul\":6894:6950   */\ntag_180:\n    /* \"#utility.yul\":6974:7012   */\n  tag_182\n    /* \"#utility.yul\":7006:7010   */\n  dup3\n    /* \"#utility.yul\":7000:7011   */\n  sload\n    /* \"#utility.yul\":6974:7012   */\n  tag_15\n  jump\t// in\ntag_182:\n    /* \"#utility.yul\":7059:7126   */\n  tag_183\n    /* \"#utility.yul\":7119:7125   */\n  dup3\n    /* \"#utility.yul\":7111:7117   */\n  dup3\n    /* \"#utility.yul\":7105:7109   */\n  dup6\n    /* \"#utility.yul\":7059:7126   */\n  tag_94\n  jump\t// in\ntag_183:\n    /* \"#utility.yul\":7153:7154   */\n  0x00\n    /* \"#utility.yul\":7177:7181   */\n  0x20\n    /* \"#utility.yul\":7164:7181   */\n  swap1\n  pop\n    /* \"#utility.yul\":7209:7211   */\n  0x1f\n    /* \"#utility.yul\":7201:7207   */\n  dup4\n    /* \"#utility.yul\":7198:7212   */\n  gt\n    /* \"#utility.yul\":7226:7227   */\n  0x01\n    /* \"#utility.yul\":7221:7839   */\n  dup2\n  eq\n  tag_185\n  jumpi\n    /* \"#utility.yul\":7883:7884   */\n  0x00\n    /* \"#utility.yul\":7900:7906   */\n  dup5\n    /* \"#utility.yul\":7897:7974   */\n  iszero\n  tag_186\n  jumpi\n    /* \"#utility.yul\":7949:7958   */\n  dup3\n    /* \"#utility.yul\":7944:7947   */\n  dup8\n    /* \"#utility.yul\":7940:7959   */\n  add\n    /* \"#utility.yul\":7934:7960   */\n  mload\n    /* \"#utility.yul\":7925:7960   */\n  swap1\n  pop\n    /* \"#utility.yul\":7897:7974   */\ntag_186:\n    /* \"#utility.yul\":8000:8067   */\n  tag_187\n    /* \"#utility.yul\":8060:8066   */\n  dup6\n    /* \"#utility.yul\":8053:8058   */\n  dup3\n    /* \"#utility.yul\":8000:8067   */\n  tag_97\n  jump\t// in\ntag_187:\n    /* \"#utility.yul\":7994:7998   */\n  dup7\n    /* \"#utility.yul\":7987:8068   */\n  sstore\n    /* \"#utility.yul\":7856:8078   */\n  pop\n    /* \"#utility.yul\":7191:8078   */\n  jump(tag_184)\n    /* \"#utility.yul\":7221:7839   */\ntag_185:\n    /* \"#utility.yul\":7273:7277   */\n  0x1f\n    /* \"#utility.yul\":7269:7278   */\n  not\n    /* \"#utility.yul\":7261:7267   */\n  dup5\n    /* \"#utility.yul\":7257:7279   */\n  and\n    /* \"#utility.yul\":7307:7344   */\n  tag_188\n    /* \"#utility.yul\":7339:7343   */\n  dup7\n    /* \"#utility.yul\":7307:7344   */\n  tag_83\n  jump\t// in\ntag_188:\n    /* \"#utility.yul\":7366:7367   */\n  0x00\n    /* \"#utility.yul\":7380:7588   */\ntag_189:\n    /* \"#utility.yul\":7394:7401   */\n  dup3\n    /* \"#utility.yul\":7391:7392   */\n  dup2\n    /* \"#utility.yul\":7388:7402   */\n  lt\n    /* \"#utility.yul\":7380:7588   */\n  iszero\n  tag_191\n  jumpi\n    /* \"#utility.yul\":7473:7482   */\n  dup5\n    /* \"#utility.yul\":7468:7471   */\n  dup10\n    /* \"#utility.yul\":7464:7483   */\n  add\n    /* \"#utility.yul\":7458:7484   */\n  mload\n    /* \"#utility.yul\":7450:7456   */\n  dup3\n    /* \"#utility.yul\":7443:7485   */\n  sstore\n    /* \"#utility.yul\":7524:7525   */\n  0x01\n    /* \"#utility.yul\":7516:7522   */\n  dup3\n    /* \"#utility.yul\":7512:7526   */\n  add\n    /* \"#utility.yul\":7502:7526   */\n  swap2\n  pop\n    /* \"#utility.yul\":7571:7573   */\n  0x20\n    /* \"#utility.yul\":7560:7569   */\n  dup6\n    /* \"#utility.yul\":7556:7574   */\n  add\n    /* \"#utility.yul\":7543:7574   */\n  swap5\n  pop\n    /* \"#utility.yul\":7417:7421   */\n  0x20\n    /* \"#utility.yul\":7414:7415   */\n  dup2\n    /* \"#utility.yul\":7410:7422   */\n  add\n    /* \"#utility.yul\":7405:7422   */\n  swap1\n  pop\n    /* \"#utility.yul\":7380:7588   */\n  jump(tag_189)\ntag_191:\n    /* \"#utility.yul\":7616:7622   */\n  dup7\n    /* \"#utility.yul\":7607:7614   */\n  dup4\n    /* \"#utility.yul\":7604:7623   */\n  lt\n    /* \"#utility.yul\":7601:7780   */\n  iszero\n  tag_192\n  jumpi\n    /* \"#utility.yul\":7674:7683   */\n  dup5\n    /* \"#utility.yul\":7669:7672   */\n  dup10\n    /* \"#utility.yul\":7665:7684   */\n  add\n    /* \"#utility.yul\":7659:7685   */\n  mload\n    /* \"#utility.yul\":7717:7765   */\n  tag_193\n    /* \"#utility.yul\":7759:7763   */\n  0x1f\n    /* \"#utility.yul\":7751:7757   */\n  dup10\n    /* \"#utility.yul\":7747:7764   */\n  and\n    /* \"#utility.yul\":7736:7745   */\n  dup3\n    /* \"#utility.yul\":7717:7765   */\n  tag_96\n  jump\t// in\ntag_193:\n    /* \"#utility.yul\":7709:7715   */\n  dup4\n    /* \"#utility.yul\":7702:7766   */\n  sstore\n    /* \"#utility.yul\":7624:7780   */\n  pop\n    /* \"#utility.yul\":7601:7780   */\ntag_192:\n    /* \"#utility.yul\":7826:7827   */\n  0x01\n    /* \"#utility.yul\":7822:7823   */\n  0x02\n    /* \"#utility.yul\":7814:7820   */\n  dup9\n    /* \"#utility.yul\":7810:7824   */\n  mul\n    /* \"#utility.yul\":7806:7828   */\n  add\n    /* \"#utility.yul\":7800:7804   */\n  dup9\n    /* \"#utility.yul\":7793:7829   */\n  sstore\n    /* \"#utility.yul\":7228:7839   */\n  pop\n  pop\n  pop\n    /* \"#utility.yul\":7191:8078   */\ntag_184:\n  pop\n    /* \"#utility.yul\":6781:8084   */\n  pop\n  pop\n  pop\n    /* \"#utility.yul\":6689:8084   */\n  pop\n  pop\n  jump\t// out\n    /* \"Users/smidolt/new files in programming/HARDHEAD/contracts/Education/7_Trees.sol\":60:1642  contract Tree {... */\ntag_46:\n  dataSize(sub_0)\n  dup1\n  dataOffset(sub_0)\n  0x00\n  codecopy\n  0x00\n  return\nstop\n\nsub_0: assembly {\n        /* \"Users/smidolt/new files in programming/HARDHEAD/contracts/Education/7_Trees.sol\":60:1642  contract Tree {... */\n      mstore(0x40, 0x80)\n      callvalue\n      dup1\n      iszero\n      tag_1\n      jumpi\n      0x00\n      dup1\n      revert\n    tag_1:\n      pop\n      jumpi(tag_2, lt(calldatasize, 0x04))\n      shr(0xe0, calldataload(0x00))\n      dup1\n      0x2637cccf\n      eq\n      tag_3\n      jumpi\n      dup1\n      0x501895ae\n      eq\n      tag_4\n      jumpi\n      dup1\n      0x52de70af\n      eq\n      tag_5\n      jumpi\n      dup1\n      0x6a11b2a8\n      eq\n      tag_6\n      jumpi\n    tag_2:\n      0x00\n      dup1\n      revert\n        /* \"Users/smidolt/new files in programming/HARDHEAD/contracts/Education/7_Trees.sol\":839:1372  function verify(string memory transaction, uint index, bytes32 root, bytes32[] memory proof) public pure returns(bool) {... */\n    tag_3:\n      tag_7\n      0x04\n      dup1\n      calldatasize\n      sub\n      dup2\n      add\n      swap1\n      tag_8\n      swap2\n      swap1\n      tag_9\n      jump\t// in\n    tag_8:\n      tag_10\n      jump\t// in\n    tag_7:\n      mload(0x40)\n      tag_11\n      swap2\n      swap1\n      tag_12\n      jump\t// in\n    tag_11:\n      mload(0x40)\n      dup1\n      swap2\n      sub\n      swap1\n      return\n        /* \"Users/smidolt/new files in programming/HARDHEAD/contracts/Education/7_Trees.sol\":80:103  bytes32[] public hashes */\n    tag_4:\n      tag_13\n      0x04\n      dup1\n      calldatasize\n      sub\n      dup2\n      add\n      swap1\n      tag_14\n      swap2\n      swap1\n      tag_15\n      jump\t// in\n    tag_14:\n      tag_16\n      jump\t// in\n    tag_13:\n      mload(0x40)\n      tag_17\n      swap2\n      swap1\n      tag_18\n      jump\t// in\n    tag_17:\n      mload(0x40)\n      dup1\n      swap2\n      sub\n      swap1\n      return\n        /* \"Users/smidolt/new files in programming/HARDHEAD/contracts/Education/7_Trees.sol\":1502:1640  function makeHash(string memory input) public pure returns(bytes32) {... */\n    tag_5:\n      tag_19\n      0x04\n      dup1\n      calldatasize\n      sub\n      dup2\n      add\n      swap1\n      tag_20\n      swap2\n      swap1\n      tag_21\n      jump\t// in\n    tag_20:\n      tag_22\n      jump\t// in\n    tag_19:\n      mload(0x40)\n      tag_23\n      swap2\n      swap1\n      tag_18\n      jump\t// in\n    tag_23:\n      mload(0x40)\n      dup1\n      swap2\n      sub\n      swap1\n      return\n        /* \"Users/smidolt/new files in programming/HARDHEAD/contracts/Education/7_Trees.sol\":1378:1496  function encode(string memory input) public pure returns(bytes memory) {... */\n    tag_6:\n      tag_24\n      0x04\n      dup1\n      calldatasize\n      sub\n      dup2\n      add\n      swap1\n      tag_25\n      swap2\n      swap1\n      tag_21\n      jump\t// in\n    tag_25:\n      tag_26\n      jump\t// in\n    tag_24:\n      mload(0x40)\n      tag_27\n      swap2\n      swap1\n      tag_28\n      jump\t// in\n    tag_27:\n      mload(0x40)\n      dup1\n      swap2\n      sub\n      swap1\n      return\n        /* \"Users/smidolt/new files in programming/HARDHEAD/contracts/Education/7_Trees.sol\":839:1372  function verify(string memory transaction, uint index, bytes32 root, bytes32[] memory proof) public pure returns(bool) {... */\n    tag_10:\n        /* \"Users/smidolt/new files in programming/HARDHEAD/contracts/Education/7_Trees.sol\":952:956  bool */\n      0x00\n        /* \"Users/smidolt/new files in programming/HARDHEAD/contracts/Education/7_Trees.sol\":968:980  bytes32 hash */\n      dup1\n        /* \"Users/smidolt/new files in programming/HARDHEAD/contracts/Education/7_Trees.sol\":983:1004  makeHash(transaction) */\n      tag_30\n        /* \"Users/smidolt/new files in programming/HARDHEAD/contracts/Education/7_Trees.sol\":992:1003  transaction */\n      dup7\n        /* \"Users/smidolt/new files in programming/HARDHEAD/contracts/Education/7_Trees.sol\":983:991  makeHash */\n      tag_22\n        /* \"Users/smidolt/new files in programming/HARDHEAD/contracts/Education/7_Trees.sol\":983:1004  makeHash(transaction) */\n      jump\t// in\n    tag_30:\n        /* \"Users/smidolt/new files in programming/HARDHEAD/contracts/Education/7_Trees.sol\":968:1004  bytes32 hash = makeHash(transaction) */\n      swap1\n      pop\n        /* \"Users/smidolt/new files in programming/HARDHEAD/contracts/Education/7_Trees.sol\":1018:1024  uint i */\n      0x00\n        /* \"Users/smidolt/new files in programming/HARDHEAD/contracts/Education/7_Trees.sol\":1014:1337  for(uint i = 0; i < proof.length; i++) {... */\n    tag_31:\n        /* \"Users/smidolt/new files in programming/HARDHEAD/contracts/Education/7_Trees.sol\":1034:1039  proof */\n      dup4\n        /* \"Users/smidolt/new files in programming/HARDHEAD/contracts/Education/7_Trees.sol\":1034:1046  proof.length */\n      mload\n        /* \"Users/smidolt/new files in programming/HARDHEAD/contracts/Education/7_Trees.sol\":1030:1031  i */\n      dup2\n        /* \"Users/smidolt/new files in programming/HARDHEAD/contracts/Education/7_Trees.sol\":1030:1046  i < proof.length */\n      lt\n        /* \"Users/smidolt/new files in programming/HARDHEAD/contracts/Education/7_Trees.sol\":1014:1337  for(uint i = 0; i < proof.length; i++) {... */\n      iszero\n      tag_32\n      jumpi\n        /* \"Users/smidolt/new files in programming/HARDHEAD/contracts/Education/7_Trees.sol\":1067:1082  bytes32 element */\n      0x00\n        /* \"Users/smidolt/new files in programming/HARDHEAD/contracts/Education/7_Trees.sol\":1085:1090  proof */\n      dup5\n        /* \"Users/smidolt/new files in programming/HARDHEAD/contracts/Education/7_Trees.sol\":1091:1092  i */\n      dup3\n        /* \"Users/smidolt/new files in programming/HARDHEAD/contracts/Education/7_Trees.sol\":1085:1093  proof[i] */\n      dup2\n      mload\n      dup2\n      lt\n      tag_34\n      jumpi\n      tag_35\n      tag_36\n      jump\t// in\n    tag_35:\n    tag_34:\n      0x20\n      mul\n      0x20\n      add\n      add\n      mload\n        /* \"Users/smidolt/new files in programming/HARDHEAD/contracts/Education/7_Trees.sol\":1067:1093  bytes32 element = proof[i] */\n      swap1\n      pop\n        /* \"Users/smidolt/new files in programming/HARDHEAD/contracts/Education/7_Trees.sol\":1123:1124  0 */\n      0x00\n        /* \"Users/smidolt/new files in programming/HARDHEAD/contracts/Education/7_Trees.sol\":1118:1119  2 */\n      0x02\n        /* \"Users/smidolt/new files in programming/HARDHEAD/contracts/Education/7_Trees.sol\":1110:1115  index */\n      dup9\n        /* \"Users/smidolt/new files in programming/HARDHEAD/contracts/Education/7_Trees.sol\":1110:1119  index % 2 */\n      tag_37\n      swap2\n      swap1\n      tag_38\n      jump\t// in\n    tag_37:\n        /* \"Users/smidolt/new files in programming/HARDHEAD/contracts/Education/7_Trees.sol\":1110:1124  index % 2 == 0 */\n      sub\n        /* \"Users/smidolt/new files in programming/HARDHEAD/contracts/Education/7_Trees.sol\":1107:1296  if(index % 2 == 0) {... */\n      tag_39\n      jumpi\n        /* \"Users/smidolt/new files in programming/HARDHEAD/contracts/Education/7_Trees.sol\":1178:1182  hash */\n      dup3\n        /* \"Users/smidolt/new files in programming/HARDHEAD/contracts/Education/7_Trees.sol\":1184:1191  element */\n      dup2\n        /* \"Users/smidolt/new files in programming/HARDHEAD/contracts/Education/7_Trees.sol\":1161:1192  abi.encodePacked(hash, element) */\n      add(0x20, mload(0x40))\n      tag_40\n      swap3\n      swap2\n      swap1\n      tag_41\n      jump\t// in\n    tag_40:\n      mload(0x40)\n      0x20\n      dup2\n      dup4\n      sub\n      sub\n      dup2\n      mstore\n      swap1\n      0x40\n      mstore\n        /* \"Users/smidolt/new files in programming/HARDHEAD/contracts/Education/7_Trees.sol\":1151:1193  keccak256(abi.encodePacked(hash, element)) */\n      dup1\n      mload\n      swap1\n      0x20\n      add\n      keccak256\n        /* \"Users/smidolt/new files in programming/HARDHEAD/contracts/Education/7_Trees.sol\":1144:1193  hash = keccak256(abi.encodePacked(hash, element)) */\n      swap3\n      pop\n        /* \"Users/smidolt/new files in programming/HARDHEAD/contracts/Education/7_Trees.sol\":1107:1296  if(index % 2 == 0) {... */\n      jump(tag_42)\n    tag_39:\n        /* \"Users/smidolt/new files in programming/HARDHEAD/contracts/Education/7_Trees.sol\":1266:1273  element */\n      dup1\n        /* \"Users/smidolt/new files in programming/HARDHEAD/contracts/Education/7_Trees.sol\":1275:1279  hash */\n      dup4\n        /* \"Users/smidolt/new files in programming/HARDHEAD/contracts/Education/7_Trees.sol\":1249:1280  abi.encodePacked(element, hash) */\n      add(0x20, mload(0x40))\n      tag_43\n      swap3\n      swap2\n      swap1\n      tag_41\n      jump\t// in\n    tag_43:\n      mload(0x40)\n      0x20\n      dup2\n      dup4\n      sub\n      sub\n      dup2\n      mstore\n      swap1\n      0x40\n      mstore\n        /* \"Users/smidolt/new files in programming/HARDHEAD/contracts/Education/7_Trees.sol\":1239:1281  keccak256(abi.encodePacked(element, hash)) */\n      dup1\n      mload\n      swap1\n      0x20\n      add\n      keccak256\n        /* \"Users/smidolt/new files in programming/HARDHEAD/contracts/Education/7_Trees.sol\":1232:1281  hash = keccak256(abi.encodePacked(element, hash)) */\n      swap3\n      pop\n        /* \"Users/smidolt/new files in programming/HARDHEAD/contracts/Education/7_Trees.sol\":1107:1296  if(index % 2 == 0) {... */\n    tag_42:\n        /* \"Users/smidolt/new files in programming/HARDHEAD/contracts/Education/7_Trees.sol\":1325:1326  2 */\n      0x02\n        /* \"Users/smidolt/new files in programming/HARDHEAD/contracts/Education/7_Trees.sol\":1317:1322  index */\n      dup8\n        /* \"Users/smidolt/new files in programming/HARDHEAD/contracts/Education/7_Trees.sol\":1317:1326  index / 2 */\n      tag_44\n      swap2\n      swap1\n      tag_45\n      jump\t// in\n    tag_44:\n        /* \"Users/smidolt/new files in programming/HARDHEAD/contracts/Education/7_Trees.sol\":1309:1326  index = index / 2 */\n      swap7\n      pop\n        /* \"Users/smidolt/new files in programming/HARDHEAD/contracts/Education/7_Trees.sol\":1053:1337  {... */\n      pop\n        /* \"Users/smidolt/new files in programming/HARDHEAD/contracts/Education/7_Trees.sol\":1048:1051  i++ */\n      dup1\n      dup1\n      0x01\n      add\n      swap2\n      pop\n      pop\n        /* \"Users/smidolt/new files in programming/HARDHEAD/contracts/Education/7_Trees.sol\":1014:1337  for(uint i = 0; i < proof.length; i++) {... */\n      jump(tag_31)\n    tag_32:\n      pop\n        /* \"Users/smidolt/new files in programming/HARDHEAD/contracts/Education/7_Trees.sol\":1361:1365  root */\n      dup4\n        /* \"Users/smidolt/new files in programming/HARDHEAD/contracts/Education/7_Trees.sol\":1353:1357  hash */\n      dup2\n        /* \"Users/smidolt/new files in programming/HARDHEAD/contracts/Education/7_Trees.sol\":1353:1365  hash == root */\n      eq\n        /* \"Users/smidolt/new files in programming/HARDHEAD/contracts/Education/7_Trees.sol\":1346:1365  return hash == root */\n      swap2\n      pop\n      pop\n        /* \"Users/smidolt/new files in programming/HARDHEAD/contracts/Education/7_Trees.sol\":839:1372  function verify(string memory transaction, uint index, bytes32 root, bytes32[] memory proof) public pure returns(bool) {... */\n      swap5\n      swap4\n      pop\n      pop\n      pop\n      pop\n      jump\t// out\n        /* \"Users/smidolt/new files in programming/HARDHEAD/contracts/Education/7_Trees.sol\":80:103  bytes32[] public hashes */\n    tag_16:\n      0x00\n      dup2\n      dup2\n      sload\n      dup2\n      lt\n      tag_46\n      jumpi\n      0x00\n      dup1\n      revert\n    tag_46:\n      swap1\n      0x00\n      mstore\n      keccak256(0x00, 0x20)\n      add\n      0x00\n      swap2\n      pop\n      swap1\n      pop\n      sload\n      dup2\n      jump\t// out\n        /* \"Users/smidolt/new files in programming/HARDHEAD/contracts/Education/7_Trees.sol\":1502:1640  function makeHash(string memory input) public pure returns(bytes32) {... */\n    tag_22:\n        /* \"Users/smidolt/new files in programming/HARDHEAD/contracts/Education/7_Trees.sol\":1561:1568  bytes32 */\n      0x00\n        /* \"Users/smidolt/new files in programming/HARDHEAD/contracts/Education/7_Trees.sol\":1610:1623  encode(input) */\n      tag_49\n        /* \"Users/smidolt/new files in programming/HARDHEAD/contracts/Education/7_Trees.sol\":1617:1622  input */\n      dup3\n        /* \"Users/smidolt/new files in programming/HARDHEAD/contracts/Education/7_Trees.sol\":1610:1616  encode */\n      tag_26\n        /* \"Users/smidolt/new files in programming/HARDHEAD/contracts/Education/7_Trees.sol\":1610:1623  encode(input) */\n      jump\t// in\n    tag_49:\n        /* \"Users/smidolt/new files in programming/HARDHEAD/contracts/Education/7_Trees.sol\":1587:1633  keccak256(... */\n      dup1\n      mload\n      swap1\n      0x20\n      add\n      keccak256\n        /* \"Users/smidolt/new files in programming/HARDHEAD/contracts/Education/7_Trees.sol\":1580:1633  return keccak256(... */\n      swap1\n      pop\n        /* \"Users/smidolt/new files in programming/HARDHEAD/contracts/Education/7_Trees.sol\":1502:1640  function makeHash(string memory input) public pure returns(bytes32) {... */\n      swap2\n      swap1\n      pop\n      jump\t// out\n        /* \"Users/smidolt/new files in programming/HARDHEAD/contracts/Education/7_Trees.sol\":1378:1496  function encode(string memory input) public pure returns(bytes memory) {... */\n    tag_26:\n        /* \"Users/smidolt/new files in programming/HARDHEAD/contracts/Education/7_Trees.sol\":1435:1447  bytes memory */\n      0x60\n        /* \"Users/smidolt/new files in programming/HARDHEAD/contracts/Education/7_Trees.sol\":1483:1488  input */\n      dup2\n        /* \"Users/smidolt/new files in programming/HARDHEAD/contracts/Education/7_Trees.sol\":1466:1489  abi.encodePacked(input) */\n      add(0x20, mload(0x40))\n      tag_51\n      swap2\n      swap1\n      tag_52\n      jump\t// in\n    tag_51:\n      mload(0x40)\n      0x20\n      dup2\n      dup4\n      sub\n      sub\n      dup2\n      mstore\n      swap1\n      0x40\n      mstore\n        /* \"Users/smidolt/new files in programming/HARDHEAD/contracts/Education/7_Trees.sol\":1459:1489  return abi.encodePacked(input) */\n      swap1\n      pop\n        /* \"Users/smidolt/new files in programming/HARDHEAD/contracts/Education/7_Trees.sol\":1378:1496  function encode(string memory input) public pure returns(bytes memory) {... */\n      swap2\n      swap1\n      pop\n      jump\t// out\n        /* \"#utility.yul\":7:82   */\n    tag_53:\n        /* \"#utility.yul\":40:46   */\n      0x00\n        /* \"#utility.yul\":73:75   */\n      0x40\n        /* \"#utility.yul\":67:76   */\n      mload\n        /* \"#utility.yul\":57:76   */\n      swap1\n      pop\n        /* \"#utility.yul\":7:82   */\n      swap1\n      jump\t// out\n        /* \"#utility.yul\":88:205   */\n    tag_54:\n        /* \"#utility.yul\":197:198   */\n      0x00\n        /* \"#utility.yul\":194:195   */\n      dup1\n        /* \"#utility.yul\":187:199   */\n      revert\n        /* \"#utility.yul\":211:328   */\n    tag_55:\n        /* \"#utility.yul\":320:321   */\n      0x00\n        /* \"#utility.yul\":317:318   */\n      dup1\n        /* \"#utility.yul\":310:322   */\n      revert\n        /* \"#utility.yul\":334:451   */\n    tag_56:\n        /* \"#utility.yul\":443:444   */\n      0x00\n        /* \"#utility.yul\":440:441   */\n      dup1\n        /* \"#utility.yul\":433:445   */\n      revert\n        /* \"#utility.yul\":457:574   */\n    tag_57:\n        /* \"#utility.yul\":566:567   */\n      0x00\n        /* \"#utility.yul\":563:564   */\n      dup1\n        /* \"#utility.yul\":556:568   */\n      revert\n        /* \"#utility.yul\":580:682   */\n    tag_58:\n        /* \"#utility.yul\":621:627   */\n      0x00\n        /* \"#utility.yul\":672:674   */\n      0x1f\n        /* \"#utility.yul\":668:675   */\n      not\n        /* \"#utility.yul\":663:665   */\n      0x1f\n        /* \"#utility.yul\":656:661   */\n      dup4\n        /* \"#utility.yul\":652:666   */\n      add\n        /* \"#utility.yul\":648:676   */\n      and\n        /* \"#utility.yul\":638:676   */\n      swap1\n      pop\n        /* \"#utility.yul\":580:682   */\n      swap2\n      swap1\n      pop\n      jump\t// out\n        /* \"#utility.yul\":688:868   */\n    tag_59:\n        /* \"#utility.yul\":736:813   */\n      0x4e487b7100000000000000000000000000000000000000000000000000000000\n        /* \"#utility.yul\":733:734   */\n      0x00\n        /* \"#utility.yul\":726:814   */\n      mstore\n        /* \"#utility.yul\":833:837   */\n      0x41\n        /* \"#utility.yul\":830:831   */\n      0x04\n        /* \"#utility.yul\":823:838   */\n      mstore\n        /* \"#utility.yul\":857:861   */\n      0x24\n        /* \"#utility.yul\":854:855   */\n      0x00\n        /* \"#utility.yul\":847:862   */\n      revert\n        /* \"#utility.yul\":874:1155   */\n    tag_60:\n        /* \"#utility.yul\":957:984   */\n      tag_99\n        /* \"#utility.yul\":979:983   */\n      dup3\n        /* \"#utility.yul\":957:984   */\n      tag_58\n      jump\t// in\n    tag_99:\n        /* \"#utility.yul\":949:955   */\n      dup2\n        /* \"#utility.yul\":945:985   */\n      add\n        /* \"#utility.yul\":1087:1093   */\n      dup2\n        /* \"#utility.yul\":1075:1085   */\n      dup2\n        /* \"#utility.yul\":1072:1094   */\n      lt\n        /* \"#utility.yul\":1051:1069   */\n      0xffffffffffffffff\n        /* \"#utility.yul\":1039:1049   */\n      dup3\n        /* \"#utility.yul\":1036:1070   */\n      gt\n        /* \"#utility.yul\":1033:1095   */\n      or\n        /* \"#utility.yul\":1030:1118   */\n      iszero\n      tag_100\n      jumpi\n        /* \"#utility.yul\":1098:1116   */\n      tag_101\n      tag_59\n      jump\t// in\n    tag_101:\n        /* \"#utility.yul\":1030:1118   */\n    tag_100:\n        /* \"#utility.yul\":1138:1148   */\n      dup1\n        /* \"#utility.yul\":1134:1136   */\n      0x40\n        /* \"#utility.yul\":1127:1149   */\n      mstore\n        /* \"#utility.yul\":917:1155   */\n      pop\n        /* \"#utility.yul\":874:1155   */\n      pop\n      pop\n      jump\t// out\n        /* \"#utility.yul\":1161:1290   */\n    tag_61:\n        /* \"#utility.yul\":1195:1201   */\n      0x00\n        /* \"#utility.yul\":1222:1242   */\n      tag_103\n      tag_53\n      jump\t// in\n    tag_103:\n        /* \"#utility.yul\":1212:1242   */\n      swap1\n      pop\n        /* \"#utility.yul\":1251:1284   */\n      tag_104\n        /* \"#utility.yul\":1279:1283   */\n      dup3\n        /* \"#utility.yul\":1271:1277   */\n      dup3\n        /* \"#utility.yul\":1251:1284   */\n      tag_60\n      jump\t// in\n    tag_104:\n        /* \"#utility.yul\":1161:1290   */\n      swap2\n      swap1\n      pop\n      jump\t// out\n        /* \"#utility.yul\":1296:1604   */\n    tag_62:\n        /* \"#utility.yul\":1358:1362   */\n      0x00\n        /* \"#utility.yul\":1448:1466   */\n      0xffffffffffffffff\n        /* \"#utility.yul\":1440:1446   */\n      dup3\n        /* \"#utility.yul\":1437:1467   */\n      gt\n        /* \"#utility.yul\":1434:1490   */\n      iszero\n      tag_106\n      jumpi\n        /* \"#utility.yul\":1470:1488   */\n      tag_107\n      tag_59\n      jump\t// in\n    tag_107:\n        /* \"#utility.yul\":1434:1490   */\n    tag_106:\n        /* \"#utility.yul\":1508:1537   */\n      tag_108\n        /* \"#utility.yul\":1530:1536   */\n      dup3\n        /* \"#utility.yul\":1508:1537   */\n      tag_58\n      jump\t// in\n    tag_108:\n        /* \"#utility.yul\":1500:1537   */\n      swap1\n      pop\n        /* \"#utility.yul\":1592:1596   */\n      0x20\n        /* \"#utility.yul\":1586:1590   */\n      dup2\n        /* \"#utility.yul\":1582:1597   */\n      add\n        /* \"#utility.yul\":1574:1597   */\n      swap1\n      pop\n        /* \"#utility.yul\":1296:1604   */\n      swap2\n      swap1\n      pop\n      jump\t// out\n        /* \"#utility.yul\":1610:1758   */\n    tag_63:\n        /* \"#utility.yul\":1708:1714   */\n      dup3\n        /* \"#utility.yul\":1703:1706   */\n      dup2\n        /* \"#utility.yul\":1698:1701   */\n      dup4\n        /* \"#utility.yul\":1685:1715   */\n      calldatacopy\n        /* \"#utility.yul\":1749:1750   */\n      0x00\n        /* \"#utility.yul\":1740:1746   */\n      dup4\n        /* \"#utility.yul\":1735:1738   */\n      dup4\n        /* \"#utility.yul\":1731:1747   */\n      add\n        /* \"#utility.yul\":1724:1751   */\n      mstore\n        /* \"#utility.yul\":1610:1758   */\n      pop\n      pop\n      pop\n      jump\t// out\n        /* \"#utility.yul\":1764:2189   */\n    tag_64:\n        /* \"#utility.yul\":1842:1847   */\n      0x00\n        /* \"#utility.yul\":1867:1933   */\n      tag_111\n        /* \"#utility.yul\":1883:1932   */\n      tag_112\n        /* \"#utility.yul\":1925:1931   */\n      dup5\n        /* \"#utility.yul\":1883:1932   */\n      tag_62\n      jump\t// in\n    tag_112:\n        /* \"#utility.yul\":1867:1933   */\n      tag_61\n      jump\t// in\n    tag_111:\n        /* \"#utility.yul\":1858:1933   */\n      swap1\n      pop\n        /* \"#utility.yul\":1956:1962   */\n      dup3\n        /* \"#utility.yul\":1949:1954   */\n      dup2\n        /* \"#utility.yul\":1942:1963   */\n      mstore\n        /* \"#utility.yul\":1994:1998   */\n      0x20\n        /* \"#utility.yul\":1987:1992   */\n      dup2\n        /* \"#utility.yul\":1983:1999   */\n      add\n        /* \"#utility.yul\":2032:2035   */\n      dup5\n        /* \"#utility.yul\":2023:2029   */\n      dup5\n        /* \"#utility.yul\":2018:2021   */\n      dup5\n        /* \"#utility.yul\":2014:2030   */\n      add\n        /* \"#utility.yul\":2011:2036   */\n      gt\n        /* \"#utility.yul\":2008:2120   */\n      iszero\n      tag_113\n      jumpi\n        /* \"#utility.yul\":2039:2118   */\n      tag_114\n      tag_57\n      jump\t// in\n    tag_114:\n        /* \"#utility.yul\":2008:2120   */\n    tag_113:\n        /* \"#utility.yul\":2129:2183   */\n      tag_115\n        /* \"#utility.yul\":2176:2182   */\n      dup5\n        /* \"#utility.yul\":2171:2174   */\n      dup3\n        /* \"#utility.yul\":2166:2169   */\n      dup6\n        /* \"#utility.yul\":2129:2183   */\n      tag_63\n      jump\t// in\n    tag_115:\n        /* \"#utility.yul\":1848:2189   */\n      pop\n        /* \"#utility.yul\":1764:2189   */\n      swap4\n      swap3\n      pop\n      pop\n      pop\n      jump\t// out\n        /* \"#utility.yul\":2209:2549   */\n    tag_65:\n        /* \"#utility.yul\":2265:2270   */\n      0x00\n        /* \"#utility.yul\":2314:2317   */\n      dup3\n        /* \"#utility.yul\":2307:2311   */\n      0x1f\n        /* \"#utility.yul\":2299:2305   */\n      dup4\n        /* \"#utility.yul\":2295:2312   */\n      add\n        /* \"#utility.yul\":2291:2318   */\n      slt\n        /* \"#utility.yul\":2281:2403   */\n      tag_117\n      jumpi\n        /* \"#utility.yul\":2322:2401   */\n      tag_118\n      tag_56\n      jump\t// in\n    tag_118:\n        /* \"#utility.yul\":2281:2403   */\n    tag_117:\n        /* \"#utility.yul\":2439:2445   */\n      dup2\n        /* \"#utility.yul\":2426:2446   */\n      calldataload\n        /* \"#utility.yul\":2464:2543   */\n      tag_119\n        /* \"#utility.yul\":2539:2542   */\n      dup5\n        /* \"#utility.yul\":2531:2537   */\n      dup3\n        /* \"#utility.yul\":2524:2528   */\n      0x20\n        /* \"#utility.yul\":2516:2522   */\n      dup7\n        /* \"#utility.yul\":2512:2529   */\n      add\n        /* \"#utility.yul\":2464:2543   */\n      tag_64\n      jump\t// in\n    tag_119:\n        /* \"#utility.yul\":2455:2543   */\n      swap2\n      pop\n        /* \"#utility.yul\":2271:2549   */\n      pop\n        /* \"#utility.yul\":2209:2549   */\n      swap3\n      swap2\n      pop\n      pop\n      jump\t// out\n        /* \"#utility.yul\":2555:2632   */\n    tag_66:\n        /* \"#utility.yul\":2592:2599   */\n      0x00\n        /* \"#utility.yul\":2621:2626   */\n      dup2\n        /* \"#utility.yul\":2610:2626   */\n      swap1\n      pop\n        /* \"#utility.yul\":2555:2632   */\n      swap2\n      swap1\n      pop\n      jump\t// out\n        /* \"#utility.yul\":2638:2760   */\n    tag_67:\n        /* \"#utility.yul\":2711:2735   */\n      tag_122\n        /* \"#utility.yul\":2729:2734   */\n      dup2\n        /* \"#utility.yul\":2711:2735   */\n      tag_66\n      jump\t// in\n    tag_122:\n        /* \"#utility.yul\":2704:2709   */\n      dup2\n        /* \"#utility.yul\":2701:2736   */\n      eq\n        /* \"#utility.yul\":2691:2754   */\n      tag_123\n      jumpi\n        /* \"#utility.yul\":2750:2751   */\n      0x00\n        /* \"#utility.yul\":2747:2748   */\n      dup1\n        /* \"#utility.yul\":2740:2752   */\n      revert\n        /* \"#utility.yul\":2691:2754   */\n    tag_123:\n        /* \"#utility.yul\":2638:2760   */\n      pop\n      jump\t// out\n        /* \"#utility.yul\":2766:2905   */\n    tag_68:\n        /* \"#utility.yul\":2812:2817   */\n      0x00\n        /* \"#utility.yul\":2850:2856   */\n      dup2\n        /* \"#utility.yul\":2837:2857   */\n      calldataload\n        /* \"#utility.yul\":2828:2857   */\n      swap1\n      pop\n        /* \"#utility.yul\":2866:2899   */\n      tag_125\n        /* \"#utility.yul\":2893:2898   */\n      dup2\n        /* \"#utility.yul\":2866:2899   */\n      tag_67\n      jump\t// in\n    tag_125:\n        /* \"#utility.yul\":2766:2905   */\n      swap3\n      swap2\n      pop\n      pop\n      jump\t// out\n        /* \"#utility.yul\":2911:2988   */\n    tag_69:\n        /* \"#utility.yul\":2948:2955   */\n      0x00\n        /* \"#utility.yul\":2977:2982   */\n      dup2\n        /* \"#utility.yul\":2966:2982   */\n      swap1\n      pop\n        /* \"#utility.yul\":2911:2988   */\n      swap2\n      swap1\n      pop\n      jump\t// out\n        /* \"#utility.yul\":2994:3116   */\n    tag_70:\n        /* \"#utility.yul\":3067:3091   */\n      tag_128\n        /* \"#utility.yul\":3085:3090   */\n      dup2\n        /* \"#utility.yul\":3067:3091   */\n      tag_69\n      jump\t// in\n    tag_128:\n        /* \"#utility.yul\":3060:3065   */\n      dup2\n        /* \"#utility.yul\":3057:3092   */\n      eq\n        /* \"#utility.yul\":3047:3110   */\n      tag_129\n      jumpi\n        /* \"#utility.yul\":3106:3107   */\n      0x00\n        /* \"#utility.yul\":3103:3104   */\n      dup1\n        /* \"#utility.yul\":3096:3108   */\n      revert\n        /* \"#utility.yul\":3047:3110   */\n    tag_129:\n        /* \"#utility.yul\":2994:3116   */\n      pop\n      jump\t// out\n        /* \"#utility.yul\":3122:3261   */\n    tag_71:\n        /* \"#utility.yul\":3168:3173   */\n      0x00\n        /* \"#utility.yul\":3206:3212   */\n      dup2\n        /* \"#utility.yul\":3193:3213   */\n      calldataload\n        /* \"#utility.yul\":3184:3213   */\n      swap1\n      pop\n        /* \"#utility.yul\":3222:3255   */\n      tag_131\n        /* \"#utility.yul\":3249:3254   */\n      dup2\n        /* \"#utility.yul\":3222:3255   */\n      tag_70\n      jump\t// in\n    tag_131:\n        /* \"#utility.yul\":3122:3261   */\n      swap3\n      swap2\n      pop\n      pop\n      jump\t// out\n        /* \"#utility.yul\":3267:3578   */\n    tag_72:\n        /* \"#utility.yul\":3344:3348   */\n      0x00\n        /* \"#utility.yul\":3434:3452   */\n      0xffffffffffffffff\n        /* \"#utility.yul\":3426:3432   */\n      dup3\n        /* \"#utility.yul\":3423:3453   */\n      gt\n        /* \"#utility.yul\":3420:3476   */\n      iszero\n      tag_133\n      jumpi\n        /* \"#utility.yul\":3456:3474   */\n      tag_134\n      tag_59\n      jump\t// in\n    tag_134:\n        /* \"#utility.yul\":3420:3476   */\n    tag_133:\n        /* \"#utility.yul\":3506:3510   */\n      0x20\n        /* \"#utility.yul\":3498:3504   */\n      dup3\n        /* \"#utility.yul\":3494:3511   */\n      mul\n        /* \"#utility.yul\":3486:3511   */\n      swap1\n      pop\n        /* \"#utility.yul\":3566:3570   */\n      0x20\n        /* \"#utility.yul\":3560:3564   */\n      dup2\n        /* \"#utility.yul\":3556:3571   */\n      add\n        /* \"#utility.yul\":3548:3571   */\n      swap1\n      pop\n        /* \"#utility.yul\":3267:3578   */\n      swap2\n      swap1\n      pop\n      jump\t// out\n        /* \"#utility.yul\":3584:3701   */\n    tag_73:\n        /* \"#utility.yul\":3693:3694   */\n      0x00\n        /* \"#utility.yul\":3690:3691   */\n      dup1\n        /* \"#utility.yul\":3683:3695   */\n      revert\n        /* \"#utility.yul\":3724:4434   */\n    tag_74:\n        /* \"#utility.yul\":3820:3825   */\n      0x00\n        /* \"#utility.yul\":3845:3926   */\n      tag_137\n        /* \"#utility.yul\":3861:3925   */\n      tag_138\n        /* \"#utility.yul\":3918:3924   */\n      dup5\n        /* \"#utility.yul\":3861:3925   */\n      tag_72\n      jump\t// in\n    tag_138:\n        /* \"#utility.yul\":3845:3926   */\n      tag_61\n      jump\t// in\n    tag_137:\n        /* \"#utility.yul\":3836:3926   */\n      swap1\n      pop\n        /* \"#utility.yul\":3946:3951   */\n      dup1\n        /* \"#utility.yul\":3975:3981   */\n      dup4\n        /* \"#utility.yul\":3968:3973   */\n      dup3\n        /* \"#utility.yul\":3961:3982   */\n      mstore\n        /* \"#utility.yul\":4009:4013   */\n      0x20\n        /* \"#utility.yul\":4002:4007   */\n      dup3\n        /* \"#utility.yul\":3998:4014   */\n      add\n        /* \"#utility.yul\":3991:4014   */\n      swap1\n      pop\n        /* \"#utility.yul\":4062:4066   */\n      0x20\n        /* \"#utility.yul\":4054:4060   */\n      dup5\n        /* \"#utility.yul\":4050:4067   */\n      mul\n        /* \"#utility.yul\":4042:4048   */\n      dup4\n        /* \"#utility.yul\":4038:4068   */\n      add\n        /* \"#utility.yul\":4091:4094   */\n      dup6\n        /* \"#utility.yul\":4083:4089   */\n      dup2\n        /* \"#utility.yul\":4080:4095   */\n      gt\n        /* \"#utility.yul\":4077:4199   */\n      iszero\n      tag_139\n      jumpi\n        /* \"#utility.yul\":4110:4189   */\n      tag_140\n      tag_73\n      jump\t// in\n    tag_140:\n        /* \"#utility.yul\":4077:4199   */\n    tag_139:\n        /* \"#utility.yul\":4225:4231   */\n      dup4\n        /* \"#utility.yul\":4208:4428   */\n    tag_141:\n        /* \"#utility.yul\":4242:4248   */\n      dup2\n        /* \"#utility.yul\":4237:4240   */\n      dup2\n        /* \"#utility.yul\":4234:4249   */\n      lt\n        /* \"#utility.yul\":4208:4428   */\n      iszero\n      tag_143\n      jumpi\n        /* \"#utility.yul\":4317:4320   */\n      dup1\n        /* \"#utility.yul\":4346:4383   */\n      tag_144\n        /* \"#utility.yul\":4379:4382   */\n      dup9\n        /* \"#utility.yul\":4367:4377   */\n      dup3\n        /* \"#utility.yul\":4346:4383   */\n      tag_71\n      jump\t// in\n    tag_144:\n        /* \"#utility.yul\":4341:4344   */\n      dup5\n        /* \"#utility.yul\":4334:4384   */\n      mstore\n        /* \"#utility.yul\":4413:4417   */\n      0x20\n        /* \"#utility.yul\":4408:4411   */\n      dup5\n        /* \"#utility.yul\":4404:4418   */\n      add\n        /* \"#utility.yul\":4397:4418   */\n      swap4\n      pop\n        /* \"#utility.yul\":4284:4428   */\n      pop\n        /* \"#utility.yul\":4268:4272   */\n      0x20\n        /* \"#utility.yul\":4263:4266   */\n      dup2\n        /* \"#utility.yul\":4259:4273   */\n      add\n        /* \"#utility.yul\":4252:4273   */\n      swap1\n      pop\n        /* \"#utility.yul\":4208:4428   */\n      jump(tag_141)\n    tag_143:\n        /* \"#utility.yul\":4212:4233   */\n      pop\n        /* \"#utility.yul\":3826:4434   */\n      pop\n      pop\n        /* \"#utility.yul\":3724:4434   */\n      swap4\n      swap3\n      pop\n      pop\n      pop\n      jump\t// out\n        /* \"#utility.yul\":4457:4827   */\n    tag_75:\n        /* \"#utility.yul\":4528:4533   */\n      0x00\n        /* \"#utility.yul\":4577:4580   */\n      dup3\n        /* \"#utility.yul\":4570:4574   */\n      0x1f\n        /* \"#utility.yul\":4562:4568   */\n      dup4\n        /* \"#utility.yul\":4558:4575   */\n      add\n        /* \"#utility.yul\":4554:4581   */\n      slt\n        /* \"#utility.yul\":4544:4666   */\n      tag_146\n      jumpi\n        /* \"#utility.yul\":4585:4664   */\n      tag_147\n      tag_56\n      jump\t// in\n    tag_147:\n        /* \"#utility.yul\":4544:4666   */\n    tag_146:\n        /* \"#utility.yul\":4702:4708   */\n      dup2\n        /* \"#utility.yul\":4689:4709   */\n      calldataload\n        /* \"#utility.yul\":4727:4821   */\n      tag_148\n        /* \"#utility.yul\":4817:4820   */\n      dup5\n        /* \"#utility.yul\":4809:4815   */\n      dup3\n        /* \"#utility.yul\":4802:4806   */\n      0x20\n        /* \"#utility.yul\":4794:4800   */\n      dup7\n        /* \"#utility.yul\":4790:4807   */\n      add\n        /* \"#utility.yul\":4727:4821   */\n      tag_74\n      jump\t// in\n    tag_148:\n        /* \"#utility.yul\":4718:4821   */\n      swap2\n      pop\n        /* \"#utility.yul\":4534:4827   */\n      pop\n        /* \"#utility.yul\":4457:4827   */\n      swap3\n      swap2\n      pop\n      pop\n      jump\t// out\n        /* \"#utility.yul\":4833:5988   */\n    tag_9:\n        /* \"#utility.yul\":4954:4960   */\n      0x00\n        /* \"#utility.yul\":4962:4968   */\n      dup1\n        /* \"#utility.yul\":4970:4976   */\n      0x00\n        /* \"#utility.yul\":4978:4984   */\n      dup1\n        /* \"#utility.yul\":5027:5030   */\n      0x80\n        /* \"#utility.yul\":5015:5024   */\n      dup6\n        /* \"#utility.yul\":5006:5013   */\n      dup8\n        /* \"#utility.yul\":5002:5025   */\n      sub\n        /* \"#utility.yul\":4998:5031   */\n      slt\n        /* \"#utility.yul\":4995:5115   */\n      iszero\n      tag_150\n      jumpi\n        /* \"#utility.yul\":5034:5113   */\n      tag_151\n      tag_54\n      jump\t// in\n    tag_151:\n        /* \"#utility.yul\":4995:5115   */\n    tag_150:\n        /* \"#utility.yul\":5182:5183   */\n      0x00\n        /* \"#utility.yul\":5171:5180   */\n      dup6\n        /* \"#utility.yul\":5167:5184   */\n      add\n        /* \"#utility.yul\":5154:5185   */\n      calldataload\n        /* \"#utility.yul\":5212:5230   */\n      0xffffffffffffffff\n        /* \"#utility.yul\":5204:5210   */\n      dup2\n        /* \"#utility.yul\":5201:5231   */\n      gt\n        /* \"#utility.yul\":5198:5315   */\n      iszero\n      tag_152\n      jumpi\n        /* \"#utility.yul\":5234:5313   */\n      tag_153\n      tag_55\n      jump\t// in\n    tag_153:\n        /* \"#utility.yul\":5198:5315   */\n    tag_152:\n        /* \"#utility.yul\":5339:5402   */\n      tag_154\n        /* \"#utility.yul\":5394:5401   */\n      dup8\n        /* \"#utility.yul\":5385:5391   */\n      dup3\n        /* \"#utility.yul\":5374:5383   */\n      dup9\n        /* \"#utility.yul\":5370:5392   */\n      add\n        /* \"#utility.yul\":5339:5402   */\n      tag_65\n      jump\t// in\n    tag_154:\n        /* \"#utility.yul\":5329:5402   */\n      swap5\n      pop\n        /* \"#utility.yul\":5125:5412   */\n      pop\n        /* \"#utility.yul\":5451:5453   */\n      0x20\n        /* \"#utility.yul\":5477:5530   */\n      tag_155\n        /* \"#utility.yul\":5522:5529   */\n      dup8\n        /* \"#utility.yul\":5513:5519   */\n      dup3\n        /* \"#utility.yul\":5502:5511   */\n      dup9\n        /* \"#utility.yul\":5498:5520   */\n      add\n        /* \"#utility.yul\":5477:5530   */\n      tag_68\n      jump\t// in\n    tag_155:\n        /* \"#utility.yul\":5467:5530   */\n      swap4\n      pop\n        /* \"#utility.yul\":5422:5540   */\n      pop\n        /* \"#utility.yul\":5579:5581   */\n      0x40\n        /* \"#utility.yul\":5605:5658   */\n      tag_156\n        /* \"#utility.yul\":5650:5657   */\n      dup8\n        /* \"#utility.yul\":5641:5647   */\n      dup3\n        /* \"#utility.yul\":5630:5639   */\n      dup9\n        /* \"#utility.yul\":5626:5648   */\n      add\n        /* \"#utility.yul\":5605:5658   */\n      tag_71\n      jump\t// in\n    tag_156:\n        /* \"#utility.yul\":5595:5658   */\n      swap3\n      pop\n        /* \"#utility.yul\":5550:5668   */\n      pop\n        /* \"#utility.yul\":5735:5737   */\n      0x60\n        /* \"#utility.yul\":5724:5733   */\n      dup6\n        /* \"#utility.yul\":5720:5738   */\n      add\n        /* \"#utility.yul\":5707:5739   */\n      calldataload\n        /* \"#utility.yul\":5766:5784   */\n      0xffffffffffffffff\n        /* \"#utility.yul\":5758:5764   */\n      dup2\n        /* \"#utility.yul\":5755:5785   */\n      gt\n        /* \"#utility.yul\":5752:5869   */\n      iszero\n      tag_157\n      jumpi\n        /* \"#utility.yul\":5788:5867   */\n      tag_158\n      tag_55\n      jump\t// in\n    tag_158:\n        /* \"#utility.yul\":5752:5869   */\n    tag_157:\n        /* \"#utility.yul\":5893:5971   */\n      tag_159\n        /* \"#utility.yul\":5963:5970   */\n      dup8\n        /* \"#utility.yul\":5954:5960   */\n      dup3\n        /* \"#utility.yul\":5943:5952   */\n      dup9\n        /* \"#utility.yul\":5939:5961   */\n      add\n        /* \"#utility.yul\":5893:5971   */\n      tag_75\n      jump\t// in\n    tag_159:\n        /* \"#utility.yul\":5883:5971   */\n      swap2\n      pop\n        /* \"#utility.yul\":5678:5981   */\n      pop\n        /* \"#utility.yul\":4833:5988   */\n      swap3\n      swap6\n      swap2\n      swap5\n      pop\n      swap3\n      pop\n      jump\t// out\n        /* \"#utility.yul\":5994:6084   */\n    tag_76:\n        /* \"#utility.yul\":6028:6035   */\n      0x00\n        /* \"#utility.yul\":6071:6076   */\n      dup2\n        /* \"#utility.yul\":6064:6077   */\n      iszero\n        /* \"#utility.yul\":6057:6078   */\n      iszero\n        /* \"#utility.yul\":6046:6078   */\n      swap1\n      pop\n        /* \"#utility.yul\":5994:6084   */\n      swap2\n      swap1\n      pop\n      jump\t// out\n        /* \"#utility.yul\":6090:6199   */\n    tag_77:\n        /* \"#utility.yul\":6171:6192   */\n      tag_162\n        /* \"#utility.yul\":6186:6191   */\n      dup2\n        /* \"#utility.yul\":6171:6192   */\n      tag_76\n      jump\t// in\n    tag_162:\n        /* \"#utility.yul\":6166:6169   */\n      dup3\n        /* \"#utility.yul\":6159:6193   */\n      mstore\n        /* \"#utility.yul\":6090:6199   */\n      pop\n      pop\n      jump\t// out\n        /* \"#utility.yul\":6205:6415   */\n    tag_12:\n        /* \"#utility.yul\":6292:6296   */\n      0x00\n        /* \"#utility.yul\":6330:6332   */\n      0x20\n        /* \"#utility.yul\":6319:6328   */\n      dup3\n        /* \"#utility.yul\":6315:6333   */\n      add\n        /* \"#utility.yul\":6307:6333   */\n      swap1\n      pop\n        /* \"#utility.yul\":6343:6408   */\n      tag_164\n        /* \"#utility.yul\":6405:6406   */\n      0x00\n        /* \"#utility.yul\":6394:6403   */\n      dup4\n        /* \"#utility.yul\":6390:6407   */\n      add\n        /* \"#utility.yul\":6381:6387   */\n      dup5\n        /* \"#utility.yul\":6343:6408   */\n      tag_77\n      jump\t// in\n    tag_164:\n        /* \"#utility.yul\":6205:6415   */\n      swap3\n      swap2\n      pop\n      pop\n      jump\t// out\n        /* \"#utility.yul\":6421:6750   */\n    tag_15:\n        /* \"#utility.yul\":6480:6486   */\n      0x00\n        /* \"#utility.yul\":6529:6531   */\n      0x20\n        /* \"#utility.yul\":6517:6526   */\n      dup3\n        /* \"#utility.yul\":6508:6515   */\n      dup5\n        /* \"#utility.yul\":6504:6527   */\n      sub\n        /* \"#utility.yul\":6500:6532   */\n      slt\n        /* \"#utility.yul\":6497:6616   */\n      iszero\n      tag_166\n      jumpi\n        /* \"#utility.yul\":6535:6614   */\n      tag_167\n      tag_54\n      jump\t// in\n    tag_167:\n        /* \"#utility.yul\":6497:6616   */\n    tag_166:\n        /* \"#utility.yul\":6655:6656   */\n      0x00\n        /* \"#utility.yul\":6680:6733   */\n      tag_168\n        /* \"#utility.yul\":6725:6732   */\n      dup5\n        /* \"#utility.yul\":6716:6722   */\n      dup3\n        /* \"#utility.yul\":6705:6714   */\n      dup6\n        /* \"#utility.yul\":6701:6723   */\n      add\n        /* \"#utility.yul\":6680:6733   */\n      tag_68\n      jump\t// in\n    tag_168:\n        /* \"#utility.yul\":6670:6733   */\n      swap2\n      pop\n        /* \"#utility.yul\":6626:6743   */\n      pop\n        /* \"#utility.yul\":6421:6750   */\n      swap3\n      swap2\n      pop\n      pop\n      jump\t// out\n        /* \"#utility.yul\":6756:6874   */\n    tag_78:\n        /* \"#utility.yul\":6843:6867   */\n      tag_170\n        /* \"#utility.yul\":6861:6866   */\n      dup2\n        /* \"#utility.yul\":6843:6867   */\n      tag_69\n      jump\t// in\n    tag_170:\n        /* \"#utility.yul\":6838:6841   */\n      dup3\n        /* \"#utility.yul\":6831:6868   */\n      mstore\n        /* \"#utility.yul\":6756:6874   */\n      pop\n      pop\n      jump\t// out\n        /* \"#utility.yul\":6880:7102   */\n    tag_18:\n        /* \"#utility.yul\":6973:6977   */\n      0x00\n        /* \"#utility.yul\":7011:7013   */\n      0x20\n        /* \"#utility.yul\":7000:7009   */\n      dup3\n        /* \"#utility.yul\":6996:7014   */\n      add\n        /* \"#utility.yul\":6988:7014   */\n      swap1\n      pop\n        /* \"#utility.yul\":7024:7095   */\n      tag_172\n        /* \"#utility.yul\":7092:7093   */\n      0x00\n        /* \"#utility.yul\":7081:7090   */\n      dup4\n        /* \"#utility.yul\":7077:7094   */\n      add\n        /* \"#utility.yul\":7068:7074   */\n      dup5\n        /* \"#utility.yul\":7024:7095   */\n      tag_78\n      jump\t// in\n    tag_172:\n        /* \"#utility.yul\":6880:7102   */\n      swap3\n      swap2\n      pop\n      pop\n      jump\t// out\n        /* \"#utility.yul\":7108:7617   */\n    tag_21:\n        /* \"#utility.yul\":7177:7183   */\n      0x00\n        /* \"#utility.yul\":7226:7228   */\n      0x20\n        /* \"#utility.yul\":7214:7223   */\n      dup3\n        /* \"#utility.yul\":7205:7212   */\n      dup5\n        /* \"#utility.yul\":7201:7224   */\n      sub\n        /* \"#utility.yul\":7197:7229   */\n      slt\n        /* \"#utility.yul\":7194:7313   */\n      iszero\n      tag_174\n      jumpi\n        /* \"#utility.yul\":7232:7311   */\n      tag_175\n      tag_54\n      jump\t// in\n    tag_175:\n        /* \"#utility.yul\":7194:7313   */\n    tag_174:\n        /* \"#utility.yul\":7380:7381   */\n      0x00\n        /* \"#utility.yul\":7369:7378   */\n      dup3\n        /* \"#utility.yul\":7365:7382   */\n      add\n        /* \"#utility.yul\":7352:7383   */\n      calldataload\n        /* \"#utility.yul\":7410:7428   */\n      0xffffffffffffffff\n        /* \"#utility.yul\":7402:7408   */\n      dup2\n        /* \"#utility.yul\":7399:7429   */\n      gt\n        /* \"#utility.yul\":7396:7513   */\n      iszero\n      tag_176\n      jumpi\n        /* \"#utility.yul\":7432:7511   */\n      tag_177\n      tag_55\n      jump\t// in\n    tag_177:\n        /* \"#utility.yul\":7396:7513   */\n    tag_176:\n        /* \"#utility.yul\":7537:7600   */\n      tag_178\n        /* \"#utility.yul\":7592:7599   */\n      dup5\n        /* \"#utility.yul\":7583:7589   */\n      dup3\n        /* \"#utility.yul\":7572:7581   */\n      dup6\n        /* \"#utility.yul\":7568:7590   */\n      add\n        /* \"#utility.yul\":7537:7600   */\n      tag_65\n      jump\t// in\n    tag_178:\n        /* \"#utility.yul\":7527:7600   */\n      swap2\n      pop\n        /* \"#utility.yul\":7323:7610   */\n      pop\n        /* \"#utility.yul\":7108:7617   */\n      swap3\n      swap2\n      pop\n      pop\n      jump\t// out\n        /* \"#utility.yul\":7623:7721   */\n    tag_79:\n        /* \"#utility.yul\":7674:7680   */\n      0x00\n        /* \"#utility.yul\":7708:7713   */\n      dup2\n        /* \"#utility.yul\":7702:7714   */\n      mload\n        /* \"#utility.yul\":7692:7714   */\n      swap1\n      pop\n        /* \"#utility.yul\":7623:7721   */\n      swap2\n      swap1\n      pop\n      jump\t// out\n        /* \"#utility.yul\":7727:7895   */\n    tag_80:\n        /* \"#utility.yul\":7810:7821   */\n      0x00\n        /* \"#utility.yul\":7844:7850   */\n      dup3\n        /* \"#utility.yul\":7839:7842   */\n      dup3\n        /* \"#utility.yul\":7832:7851   */\n      mstore\n        /* \"#utility.yul\":7884:7888   */\n      0x20\n        /* \"#utility.yul\":7879:7882   */\n      dup3\n        /* \"#utility.yul\":7875:7889   */\n      add\n        /* \"#utility.yul\":7860:7889   */\n      swap1\n      pop\n        /* \"#utility.yul\":7727:7895   */\n      swap3\n      swap2\n      pop\n      pop\n      jump\t// out\n        /* \"#utility.yul\":7901:8040   */\n    tag_81:\n        /* \"#utility.yul\":7990:7996   */\n      dup3\n        /* \"#utility.yul\":7985:7988   */\n      dup2\n        /* \"#utility.yul\":7980:7983   */\n      dup4\n        /* \"#utility.yul\":7974:7997   */\n      mcopy\n        /* \"#utility.yul\":8031:8032   */\n      0x00\n        /* \"#utility.yul\":8022:8028   */\n      dup4\n        /* \"#utility.yul\":8017:8020   */\n      dup4\n        /* \"#utility.yul\":8013:8029   */\n      add\n        /* \"#utility.yul\":8006:8033   */\n      mstore\n        /* \"#utility.yul\":7901:8040   */\n      pop\n      pop\n      pop\n      jump\t// out\n        /* \"#utility.yul\":8046:8419   */\n    tag_82:\n        /* \"#utility.yul\":8132:8135   */\n      0x00\n        /* \"#utility.yul\":8160:8198   */\n      tag_183\n        /* \"#utility.yul\":8192:8197   */\n      dup3\n        /* \"#utility.yul\":8160:8198   */\n      tag_79\n      jump\t// in\n    tag_183:\n        /* \"#utility.yul\":8214:8284   */\n      tag_184\n        /* \"#utility.yul\":8277:8283   */\n      dup2\n        /* \"#utility.yul\":8272:8275   */\n      dup6\n        /* \"#utility.yul\":8214:8284   */\n      tag_80\n      jump\t// in\n    tag_184:\n        /* \"#utility.yul\":8207:8284   */\n      swap4\n      pop\n        /* \"#utility.yul\":8293:8358   */\n      tag_185\n        /* \"#utility.yul\":8351:8357   */\n      dup2\n        /* \"#utility.yul\":8346:8349   */\n      dup6\n        /* \"#utility.yul\":8339:8343   */\n      0x20\n        /* \"#utility.yul\":8332:8337   */\n      dup7\n        /* \"#utility.yul\":8328:8344   */\n      add\n        /* \"#utility.yul\":8293:8358   */\n      tag_81\n      jump\t// in\n    tag_185:\n        /* \"#utility.yul\":8383:8412   */\n      tag_186\n        /* \"#utility.yul\":8405:8411   */\n      dup2\n        /* \"#utility.yul\":8383:8412   */\n      tag_58\n      jump\t// in\n    tag_186:\n        /* \"#utility.yul\":8378:8381   */\n      dup5\n        /* \"#utility.yul\":8374:8413   */\n      add\n        /* \"#utility.yul\":8367:8413   */\n      swap2\n      pop\n        /* \"#utility.yul\":8136:8419   */\n      pop\n        /* \"#utility.yul\":8046:8419   */\n      swap3\n      swap2\n      pop\n      pop\n      jump\t// out\n        /* \"#utility.yul\":8425:8734   */\n    tag_28:\n        /* \"#utility.yul\":8536:8540   */\n      0x00\n        /* \"#utility.yul\":8574:8576   */\n      0x20\n        /* \"#utility.yul\":8563:8572   */\n      dup3\n        /* \"#utility.yul\":8559:8577   */\n      add\n        /* \"#utility.yul\":8551:8577   */\n      swap1\n      pop\n        /* \"#utility.yul\":8623:8632   */\n      dup2\n        /* \"#utility.yul\":8617:8621   */\n      dup2\n        /* \"#utility.yul\":8613:8633   */\n      sub\n        /* \"#utility.yul\":8609:8610   */\n      0x00\n        /* \"#utility.yul\":8598:8607   */\n      dup4\n        /* \"#utility.yul\":8594:8611   */\n      add\n        /* \"#utility.yul\":8587:8634   */\n      mstore\n        /* \"#utility.yul\":8651:8727   */\n      tag_188\n        /* \"#utility.yul\":8722:8726   */\n      dup2\n        /* \"#utility.yul\":8713:8719   */\n      dup5\n        /* \"#utility.yul\":8651:8727   */\n      tag_82\n      jump\t// in\n    tag_188:\n        /* \"#utility.yul\":8643:8727   */\n      swap1\n      pop\n        /* \"#utility.yul\":8425:8734   */\n      swap3\n      swap2\n      pop\n      pop\n      jump\t// out\n        /* \"#utility.yul\":8740:8920   */\n    tag_36:\n        /* \"#utility.yul\":8788:8865   */\n      0x4e487b7100000000000000000000000000000000000000000000000000000000\n        /* \"#utility.yul\":8785:8786   */\n      0x00\n        /* \"#utility.yul\":8778:8866   */\n      mstore\n        /* \"#utility.yul\":8885:8889   */\n      0x32\n        /* \"#utility.yul\":8882:8883   */\n      0x04\n        /* \"#utility.yul\":8875:8890   */\n      mstore\n        /* \"#utility.yul\":8909:8913   */\n      0x24\n        /* \"#utility.yul\":8906:8907   */\n      0x00\n        /* \"#utility.yul\":8899:8914   */\n      revert\n        /* \"#utility.yul\":8926:9106   */\n    tag_83:\n        /* \"#utility.yul\":8974:9051   */\n      0x4e487b7100000000000000000000000000000000000000000000000000000000\n        /* \"#utility.yul\":8971:8972   */\n      0x00\n        /* \"#utility.yul\":8964:9052   */\n      mstore\n        /* \"#utility.yul\":9071:9075   */\n      0x12\n        /* \"#utility.yul\":9068:9069   */\n      0x04\n        /* \"#utility.yul\":9061:9076   */\n      mstore\n        /* \"#utility.yul\":9095:9099   */\n      0x24\n        /* \"#utility.yul\":9092:9093   */\n      0x00\n        /* \"#utility.yul\":9085:9100   */\n      revert\n        /* \"#utility.yul\":9112:9288   */\n    tag_38:\n        /* \"#utility.yul\":9144:9145   */\n      0x00\n        /* \"#utility.yul\":9161:9181   */\n      tag_192\n        /* \"#utility.yul\":9179:9180   */\n      dup3\n        /* \"#utility.yul\":9161:9181   */\n      tag_66\n      jump\t// in\n    tag_192:\n        /* \"#utility.yul\":9156:9181   */\n      swap2\n      pop\n        /* \"#utility.yul\":9195:9215   */\n      tag_193\n        /* \"#utility.yul\":9213:9214   */\n      dup4\n        /* \"#utility.yul\":9195:9215   */\n      tag_66\n      jump\t// in\n    tag_193:\n        /* \"#utility.yul\":9190:9215   */\n      swap3\n      pop\n        /* \"#utility.yul\":9234:9235   */\n      dup3\n        /* \"#utility.yul\":9224:9259   */\n      tag_194\n      jumpi\n        /* \"#utility.yul\":9239:9257   */\n      tag_195\n      tag_83\n      jump\t// in\n    tag_195:\n        /* \"#utility.yul\":9224:9259   */\n    tag_194:\n        /* \"#utility.yul\":9280:9281   */\n      dup3\n        /* \"#utility.yul\":9277:9278   */\n      dup3\n        /* \"#utility.yul\":9273:9282   */\n      mod\n        /* \"#utility.yul\":9268:9282   */\n      swap1\n      pop\n        /* \"#utility.yul\":9112:9288   */\n      swap3\n      swap2\n      pop\n      pop\n      jump\t// out\n        /* \"#utility.yul\":9294:9373   */\n    tag_84:\n        /* \"#utility.yul\":9333:9340   */\n      0x00\n        /* \"#utility.yul\":9362:9367   */\n      dup2\n        /* \"#utility.yul\":9351:9367   */\n      swap1\n      pop\n        /* \"#utility.yul\":9294:9373   */\n      swap2\n      swap1\n      pop\n      jump\t// out\n        /* \"#utility.yul\":9379:9536   */\n    tag_85:\n        /* \"#utility.yul\":9484:9529   */\n      tag_198\n        /* \"#utility.yul\":9504:9528   */\n      tag_199\n        /* \"#utility.yul\":9522:9527   */\n      dup3\n        /* \"#utility.yul\":9504:9528   */\n      tag_69\n      jump\t// in\n    tag_199:\n        /* \"#utility.yul\":9484:9529   */\n      tag_84\n      jump\t// in\n    tag_198:\n        /* \"#utility.yul\":9479:9482   */\n      dup3\n        /* \"#utility.yul\":9472:9530   */\n      mstore\n        /* \"#utility.yul\":9379:9536   */\n      pop\n      pop\n      jump\t// out\n        /* \"#utility.yul\":9542:9939   */\n    tag_41:\n        /* \"#utility.yul\":9682:9685   */\n      0x00\n        /* \"#utility.yul\":9697:9772   */\n      tag_201\n        /* \"#utility.yul\":9768:9771   */\n      dup3\n        /* \"#utility.yul\":9759:9765   */\n      dup6\n        /* \"#utility.yul\":9697:9772   */\n      tag_85\n      jump\t// in\n    tag_201:\n        /* \"#utility.yul\":9797:9799   */\n      0x20\n        /* \"#utility.yul\":9792:9795   */\n      dup3\n        /* \"#utility.yul\":9788:9800   */\n      add\n        /* \"#utility.yul\":9781:9800   */\n      swap2\n      pop\n        /* \"#utility.yul\":9810:9885   */\n      tag_202\n        /* \"#utility.yul\":9881:9884   */\n      dup3\n        /* \"#utility.yul\":9872:9878   */\n      dup5\n        /* \"#utility.yul\":9810:9885   */\n      tag_85\n      jump\t// in\n    tag_202:\n        /* \"#utility.yul\":9910:9912   */\n      0x20\n        /* \"#utility.yul\":9905:9908   */\n      dup3\n        /* \"#utility.yul\":9901:9913   */\n      add\n        /* \"#utility.yul\":9894:9913   */\n      swap2\n      pop\n        /* \"#utility.yul\":9930:9933   */\n      dup2\n        /* \"#utility.yul\":9923:9933   */\n      swap1\n      pop\n        /* \"#utility.yul\":9542:9939   */\n      swap4\n      swap3\n      pop\n      pop\n      pop\n      jump\t// out\n        /* \"#utility.yul\":10131:10316   */\n    tag_45:\n        /* \"#utility.yul\":10171:10172   */\n      0x00\n        /* \"#utility.yul\":10188:10208   */\n      tag_205\n        /* \"#utility.yul\":10206:10207   */\n      dup3\n        /* \"#utility.yul\":10188:10208   */\n      tag_66\n      jump\t// in\n    tag_205:\n        /* \"#utility.yul\":10183:10208   */\n      swap2\n      pop\n        /* \"#utility.yul\":10222:10242   */\n      tag_206\n        /* \"#utility.yul\":10240:10241   */\n      dup4\n        /* \"#utility.yul\":10222:10242   */\n      tag_66\n      jump\t// in\n    tag_206:\n        /* \"#utility.yul\":10217:10242   */\n      swap3\n      pop\n        /* \"#utility.yul\":10261:10262   */\n      dup3\n        /* \"#utility.yul\":10251:10286   */\n      tag_207\n      jumpi\n        /* \"#utility.yul\":10266:10284   */\n      tag_208\n      tag_83\n      jump\t// in\n    tag_208:\n        /* \"#utility.yul\":10251:10286   */\n    tag_207:\n        /* \"#utility.yul\":10308:10309   */\n      dup3\n        /* \"#utility.yul\":10305:10306   */\n      dup3\n        /* \"#utility.yul\":10301:10310   */\n      div\n        /* \"#utility.yul\":10296:10310   */\n      swap1\n      pop\n        /* \"#utility.yul\":10131:10316   */\n      swap3\n      swap2\n      pop\n      pop\n      jump\t// out\n        /* \"#utility.yul\":10322:10421   */\n    tag_87:\n        /* \"#utility.yul\":10374:10380   */\n      0x00\n        /* \"#utility.yul\":10408:10413   */\n      dup2\n        /* \"#utility.yul\":10402:10414   */\n      mload\n        /* \"#utility.yul\":10392:10414   */\n      swap1\n      pop\n        /* \"#utility.yul\":10322:10421   */\n      swap2\n      swap1\n      pop\n      jump\t// out\n        /* \"#utility.yul\":10427:10575   */\n    tag_88:\n        /* \"#utility.yul\":10529:10540   */\n      0x00\n        /* \"#utility.yul\":10566:10569   */\n      dup2\n        /* \"#utility.yul\":10551:10569   */\n      swap1\n      pop\n        /* \"#utility.yul\":10427:10575   */\n      swap3\n      swap2\n      pop\n      pop\n      jump\t// out\n        /* \"#utility.yul\":10581:10971   */\n    tag_89:\n        /* \"#utility.yul\":10687:10690   */\n      0x00\n        /* \"#utility.yul\":10715:10754   */\n      tag_212\n        /* \"#utility.yul\":10748:10753   */\n      dup3\n        /* \"#utility.yul\":10715:10754   */\n      tag_87\n      jump\t// in\n    tag_212:\n        /* \"#utility.yul\":10770:10859   */\n      tag_213\n        /* \"#utility.yul\":10852:10858   */\n      dup2\n        /* \"#utility.yul\":10847:10850   */\n      dup6\n        /* \"#utility.yul\":10770:10859   */\n      tag_88\n      jump\t// in\n    tag_213:\n        /* \"#utility.yul\":10763:10859   */\n      swap4\n      pop\n        /* \"#utility.yul\":10868:10933   */\n      tag_214\n        /* \"#utility.yul\":10926:10932   */\n      dup2\n        /* \"#utility.yul\":10921:10924   */\n      dup6\n        /* \"#utility.yul\":10914:10918   */\n      0x20\n        /* \"#utility.yul\":10907:10912   */\n      dup7\n        /* \"#utility.yul\":10903:10919   */\n      add\n        /* \"#utility.yul\":10868:10933   */\n      tag_81\n      jump\t// in\n    tag_214:\n        /* \"#utility.yul\":10958:10964   */\n      dup1\n        /* \"#utility.yul\":10953:10956   */\n      dup5\n        /* \"#utility.yul\":10949:10965   */\n      add\n        /* \"#utility.yul\":10942:10965   */\n      swap2\n      pop\n        /* \"#utility.yul\":10691:10971   */\n      pop\n        /* \"#utility.yul\":10581:10971   */\n      swap3\n      swap2\n      pop\n      pop\n      jump\t// out\n        /* \"#utility.yul\":10977:11252   */\n    tag_52:\n        /* \"#utility.yul\":11109:11112   */\n      0x00\n        /* \"#utility.yul\":11131:11226   */\n      tag_216\n        /* \"#utility.yul\":11222:11225   */\n      dup3\n        /* \"#utility.yul\":11213:11219   */\n      dup5\n        /* \"#utility.yul\":11131:11226   */\n      tag_89\n      jump\t// in\n    tag_216:\n        /* \"#utility.yul\":11124:11226   */\n      swap2\n      pop\n        /* \"#utility.yul\":11243:11246   */\n      dup2\n        /* \"#utility.yul\":11236:11246   */\n      swap1\n      pop\n        /* \"#utility.yul\":10977:11252   */\n      swap3\n      swap2\n      pop\n      pop\n      jump\t// out\n\n    auxdata: 0xa264697066735822122015cce42d34839bcee342716835e82abee14d85610c7dd50dd9c6aab4fc184e7964736f6c63430008190033\n}\n",
				"bytecode": {
					"linkReferences": {},
					"object": "608060405260405180608001604052806040518060400160405280601581526020017f5458313a20536865726c6f636b202d3e204a6f686e000000000000000000000081525081526020016040518060400160405280601581526020017f5458323a204a6f686e202d3e20536865726c6f636b000000000000000000000081525081526020016040518060400160405280601181526020017f5458333a204a6f686e202d3e204d61727900000000000000000000000000000081525081526020016040518060400160405280601581526020017f5458333a204d617279202d3e20536865726c6f636b0000000000000000000000815250815250600190600461010992919061034c565b50348015610115575f80fd5b505f5b60048110156101fc575f6101cc6001836004811061013957610138610413565b5b0180546101459061046d565b80601f01602080910402602001604051908101604052809291908181526020018280546101719061046d565b80156101bc5780601f10610193576101008083540402835291602001916101bc565b820191905f5260205f20905b81548152906001019060200180831161019f57829003601f168201915b505050505061030560201b60201c565b908060018154018082558091505060019003905f5260205f20015f90919091909150558080600101915050610118565b505f600490505f5b5f8211156102fe575f5b60018361021b91906104d3565b8110156102db575f8082846102309190610506565b8154811061024157610240610413565b5b905f5260205f2001545f600184866102599190610506565b6102639190610506565b8154811061027457610273610413565b5b905f5260205f20015460405160200161028e929190610562565b60405160208183030381529060405280519060200120908060018154018082558091505060019003905f5260205f20015f90919091909150556002816102d49190610506565b905061020e565b5081816102e89190610506565b90506002826102f791906105ba565b9150610204565b50506108eb565b5f6103158261032360201b60201c565b805190602001209050919050565b606081604051602001610336919061063c565b6040516020818303038152906040529050919050565b8260048101928215610387579160200282015b82811115610386578251829081610376919061081c565b509160200191906001019061035f565b5b5090506103949190610398565b5090565b5b808211156103b7575f81816103ae91906103bb565b50600101610399565b5090565b5080546103c79061046d565b5f825580601f106103d857506103f5565b601f0160209004905f5260205f20908101906103f491906103f8565b5b50565b5b8082111561040f575f815f9055506001016103f9565b5090565b7f4e487b71000000000000000000000000000000000000000000000000000000005f52603260045260245ffd5b7f4e487b71000000000000000000000000000000000000000000000000000000005f52602260045260245ffd5b5f600282049050600182168061048457607f821691505b60208210810361049757610496610440565b5b50919050565b5f819050919050565b7f4e487b71000000000000000000000000000000000000000000000000000000005f52601160045260245ffd5b5f6104dd8261049d565b91506104e88361049d565b9250828203905081811115610500576104ff6104a6565b5b92915050565b5f6105108261049d565b915061051b8361049d565b9250828201905080821115610533576105326104a6565b5b92915050565b5f819050919050565b5f819050919050565b61055c61055782610539565b610542565b82525050565b5f61056d828561054b565b60208201915061057d828461054b565b6020820191508190509392505050565b7f4e487b71000000000000000000000000000000000000000000000000000000005f52601260045260245ffd5b5f6105c48261049d565b91506105cf8361049d565b9250826105df576105de61058d565b5b828204905092915050565b5f81519050919050565b5f81905092915050565b8281835e5f83830152505050565b5f610616826105ea565b61062081856105f4565b93506106308185602086016105fe565b80840191505092915050565b5f610647828461060c565b915081905092915050565b7f4e487b71000000000000000000000000000000000000000000000000000000005f52604160045260245ffd5b5f819050815f5260205f209050919050565b5f6020601f8301049050919050565b5f82821b905092915050565b5f600883026106db7fffffffffffffffffffffffffffffffffffffffffffffffffffffffffffffffff826106a0565b6106e586836106a0565b95508019841693508086168417925050509392505050565b5f819050919050565b5f61072061071b6107168461049d565b6106fd565b61049d565b9050919050565b5f819050919050565b61073983610706565b61074d61074582610727565b8484546106ac565b825550505050565b5f90565b610761610755565b61076c818484610730565b505050565b5b8181101561078f576107845f82610759565b600181019050610772565b5050565b601f8211156107d4576107a58161067f565b6107ae84610691565b810160208510156107bd578190505b6107d16107c985610691565b830182610771565b50505b505050565b5f82821c905092915050565b5f6107f45f19846008026107d9565b1980831691505092915050565b5f61080c83836107e5565b9150826002028217905092915050565b610825826105ea565b67ffffffffffffffff81111561083e5761083d610652565b5b610848825461046d565b610853828285610793565b5f60209050601f831160018114610884575f8415610872578287015190505b61087c8582610801565b8655506108e3565b601f1984166108928661067f565b5f5b828110156108b957848901518255600182019150602085019450602081019050610894565b868310156108d657848901516108d2601f8916826107e5565b8355505b6001600288020188555050505b505050505050565b610834806108f85f395ff3fe608060405234801561000f575f80fd5b506004361061004a575f3560e01c80632637cccf1461004e578063501895ae1461007e57806352de70af146100ae5780636a11b2a8146100de575b5f80fd5b610068600480360381019061006391906104b6565b61010e565b604051610075919061056c565b60405180910390f35b61009860048036038101906100939190610585565b6101df565b6040516100a591906105bf565b60405180910390f35b6100c860048036038101906100c391906105d8565b6101fe565b6040516100d591906105bf565b60405180910390f35b6100f860048036038101906100f391906105d8565b610216565b604051610105919061067f565b60405180910390f35b5f80610119866101fe565b90505f5b83518110156101d0575f84828151811061013a5761013961069f565b5b602002602001015190505f60028861015291906106f9565b0361018757828160405160200161016a929190610749565b6040516020818303038152906040528051906020012092506101b3565b808360405160200161019a929190610749565b6040516020818303038152906040528051906020012092505b6002876101c09190610774565b965050808060010191505061011d565b50838114915050949350505050565b5f81815481106101ed575f80fd5b905f5260205f20015f915090505481565b5f61020882610216565b805190602001209050919050565b60608160405160200161022991906107e8565b6040516020818303038152906040529050919050565b5f604051905090565b5f80fd5b5f80fd5b5f80fd5b5f80fd5b5f601f19601f8301169050919050565b7f4e487b71000000000000000000000000000000000000000000000000000000005f52604160045260245ffd5b61029e82610258565b810181811067ffffffffffffffff821117156102bd576102bc610268565b5b80604052505050565b5f6102cf61023f565b90506102db8282610295565b919050565b5f67ffffffffffffffff8211156102fa576102f9610268565b5b61030382610258565b9050602081019050919050565b828183375f83830152505050565b5f61033061032b846102e0565b6102c6565b90508281526020810184848401111561034c5761034b610254565b5b610357848285610310565b509392505050565b5f82601f83011261037357610372610250565b5b813561038384826020860161031e565b91505092915050565b5f819050919050565b61039e8161038c565b81146103a8575f80fd5b50565b5f813590506103b981610395565b92915050565b5f819050919050565b6103d1816103bf565b81146103db575f80fd5b50565b5f813590506103ec816103c8565b92915050565b5f67ffffffffffffffff82111561040c5761040b610268565b5b602082029050602081019050919050565b5f80fd5b5f61043361042e846103f2565b6102c6565b905080838252602082019050602084028301858111156104565761045561041d565b5b835b8181101561047f578061046b88826103de565b845260208401935050602081019050610458565b5050509392505050565b5f82601f83011261049d5761049c610250565b5b81356104ad848260208601610421565b91505092915050565b5f805f80608085870312156104ce576104cd610248565b5b5f85013567ffffffffffffffff8111156104eb576104ea61024c565b5b6104f78782880161035f565b9450506020610508878288016103ab565b9350506040610519878288016103de565b925050606085013567ffffffffffffffff81111561053a5761053961024c565b5b61054687828801610489565b91505092959194509250565b5f8115159050919050565b61056681610552565b82525050565b5f60208201905061057f5f83018461055d565b92915050565b5f6020828403121561059a57610599610248565b5b5f6105a7848285016103ab565b91505092915050565b6105b9816103bf565b82525050565b5f6020820190506105d25f8301846105b0565b92915050565b5f602082840312156105ed576105ec610248565b5b5f82013567ffffffffffffffff81111561060a5761060961024c565b5b6106168482850161035f565b91505092915050565b5f81519050919050565b5f82825260208201905092915050565b8281835e5f83830152505050565b5f6106518261061f565b61065b8185610629565b935061066b818560208601610639565b61067481610258565b840191505092915050565b5f6020820190508181035f8301526106978184610647565b905092915050565b7f4e487b71000000000000000000000000000000000000000000000000000000005f52603260045260245ffd5b7f4e487b71000000000000000000000000000000000000000000000000000000005f52601260045260245ffd5b5f6107038261038c565b915061070e8361038c565b92508261071e5761071d6106cc565b5b828206905092915050565b5f819050919050565b61074361073e826103bf565b610729565b82525050565b5f6107548285610732565b6020820191506107648284610732565b6020820191508190509392505050565b5f61077e8261038c565b91506107898361038c565b925082610799576107986106cc565b5b828204905092915050565b5f81519050919050565b5f81905092915050565b5f6107c2826107a4565b6107cc81856107ae565b93506107dc818560208601610639565b80840191505092915050565b5f6107f382846107b8565b91508190509291505056fea264697066735822122015cce42d34839bcee342716835e82abee14d85610c7dd50dd9c6aab4fc184e7964736f6c63430008190033",
					"opcodes": "PUSH1 0x80 PUSH1 0x40 MSTORE PUSH1 0x40 MLOAD DUP1 PUSH1 0x80 ADD PUSH1 0x40 MSTORE DUP1 PUSH1 0x40 MLOAD DUP1 PUSH1 0x40 ADD PUSH1 0x40 MSTORE DUP1 PUSH1 0x15 DUP2 MSTORE PUSH1 0x20 ADD PUSH32 0x5458313A20536865726C6F636B202D3E204A6F686E0000000000000000000000 DUP2 MSTORE POP DUP2 MSTORE PUSH1 0x20 ADD PUSH1 0x40 MLOAD DUP1 PUSH1 0x40 ADD PUSH1 0x40 MSTORE DUP1 PUSH1 0x15 DUP2 MSTORE PUSH1 0x20 ADD PUSH32 0x5458323A204A6F686E202D3E20536865726C6F636B0000000000000000000000 DUP2 MSTORE POP DUP2 MSTORE PUSH1 0x20 ADD PUSH1 0x40 MLOAD DUP1 PUSH1 0x40 ADD PUSH1 0x40 MSTORE DUP1 PUSH1 0x11 DUP2 MSTORE PUSH1 0x20 ADD PUSH32 0x5458333A204A6F686E202D3E204D617279000000000000000000000000000000 DUP2 MSTORE POP DUP2 MSTORE PUSH1 0x20 ADD PUSH1 0x40 MLOAD DUP1 PUSH1 0x40 ADD PUSH1 0x40 MSTORE DUP1 PUSH1 0x15 DUP2 MSTORE PUSH1 0x20 ADD PUSH32 0x5458333A204D617279202D3E20536865726C6F636B0000000000000000000000 DUP2 MSTORE POP DUP2 MSTORE POP PUSH1 0x1 SWAP1 PUSH1 0x4 PUSH2 0x109 SWAP3 SWAP2 SWAP1 PUSH2 0x34C JUMP JUMPDEST POP CALLVALUE DUP1 ISZERO PUSH2 0x115 JUMPI PUSH0 DUP1 REVERT JUMPDEST POP PUSH0 JUMPDEST PUSH1 0x4 DUP2 LT ISZERO PUSH2 0x1FC JUMPI PUSH0 PUSH2 0x1CC PUSH1 0x1 DUP4 PUSH1 0x4 DUP2 LT PUSH2 0x139 JUMPI PUSH2 0x138 PUSH2 0x413 JUMP JUMPDEST JUMPDEST ADD DUP1 SLOAD PUSH2 0x145 SWAP1 PUSH2 0x46D JUMP JUMPDEST DUP1 PUSH1 0x1F ADD PUSH1 0x20 DUP1 SWAP2 DIV MUL PUSH1 0x20 ADD PUSH1 0x40 MLOAD SWAP1 DUP2 ADD PUSH1 0x40 MSTORE DUP1 SWAP3 SWAP2 SWAP1 DUP2 DUP2 MSTORE PUSH1 0x20 ADD DUP3 DUP1 SLOAD PUSH2 0x171 SWAP1 PUSH2 0x46D JUMP JUMPDEST DUP1 ISZERO PUSH2 0x1BC JUMPI DUP1 PUSH1 0x1F LT PUSH2 0x193 JUMPI PUSH2 0x100 DUP1 DUP4 SLOAD DIV MUL DUP4 MSTORE SWAP2 PUSH1 0x20 ADD SWAP2 PUSH2 0x1BC JUMP JUMPDEST DUP3 ADD SWAP2 SWAP1 PUSH0 MSTORE PUSH1 0x20 PUSH0 KECCAK256 SWAP1 JUMPDEST DUP2 SLOAD DUP2 MSTORE SWAP1 PUSH1 0x1 ADD SWAP1 PUSH1 0x20 ADD DUP1 DUP4 GT PUSH2 0x19F JUMPI DUP3 SWAP1 SUB PUSH1 0x1F AND DUP3 ADD SWAP2 JUMPDEST POP POP POP POP POP PUSH2 0x305 PUSH1 0x20 SHL PUSH1 0x20 SHR JUMP JUMPDEST SWAP1 DUP1 PUSH1 0x1 DUP2 SLOAD ADD DUP1 DUP3 SSTORE DUP1 SWAP2 POP POP PUSH1 0x1 SWAP1 SUB SWAP1 PUSH0 MSTORE PUSH1 0x20 PUSH0 KECCAK256 ADD PUSH0 SWAP1 SWAP2 SWAP1 SWAP2 SWAP1 SWAP2 POP SSTORE DUP1 DUP1 PUSH1 0x1 ADD SWAP2 POP POP PUSH2 0x118 JUMP JUMPDEST POP PUSH0 PUSH1 0x4 SWAP1 POP PUSH0 JUMPDEST PUSH0 DUP3 GT ISZERO PUSH2 0x2FE JUMPI PUSH0 JUMPDEST PUSH1 0x1 DUP4 PUSH2 0x21B SWAP2 SWAP1 PUSH2 0x4D3 JUMP JUMPDEST DUP2 LT ISZERO PUSH2 0x2DB JUMPI PUSH0 DUP1 DUP3 DUP5 PUSH2 0x230 SWAP2 SWAP1 PUSH2 0x506 JUMP JUMPDEST DUP2 SLOAD DUP2 LT PUSH2 0x241 JUMPI PUSH2 0x240 PUSH2 0x413 JUMP JUMPDEST JUMPDEST SWAP1 PUSH0 MSTORE PUSH1 0x20 PUSH0 KECCAK256 ADD SLOAD PUSH0 PUSH1 0x1 DUP5 DUP7 PUSH2 0x259 SWAP2 SWAP1 PUSH2 0x506 JUMP JUMPDEST PUSH2 0x263 SWAP2 SWAP1 PUSH2 0x506 JUMP JUMPDEST DUP2 SLOAD DUP2 LT PUSH2 0x274 JUMPI PUSH2 0x273 PUSH2 0x413 JUMP JUMPDEST JUMPDEST SWAP1 PUSH0 MSTORE PUSH1 0x20 PUSH0 KECCAK256 ADD SLOAD PUSH1 0x40 MLOAD PUSH1 0x20 ADD PUSH2 0x28E SWAP3 SWAP2 SWAP1 PUSH2 0x562 JUMP JUMPDEST PUSH1 0x40 MLOAD PUSH1 0x20 DUP2 DUP4 SUB SUB DUP2 MSTORE SWAP1 PUSH1 0x40 MSTORE DUP1 MLOAD SWAP1 PUSH1 0x20 ADD KECCAK256 SWAP1 DUP1 PUSH1 0x1 DUP2 SLOAD ADD DUP1 DUP3 SSTORE DUP1 SWAP2 POP POP PUSH1 0x1 SWAP1 SUB SWAP1 PUSH0 MSTORE PUSH1 0x20 PUSH0 KECCAK256 ADD PUSH0 SWAP1 SWAP2 SWAP1 SWAP2 SWAP1 SWAP2 POP SSTORE PUSH1 0x2 DUP2 PUSH2 0x2D4 SWAP2 SWAP1 PUSH2 0x506 JUMP JUMPDEST SWAP1 POP PUSH2 0x20E JUMP JUMPDEST POP DUP2 DUP2 PUSH2 0x2E8 SWAP2 SWAP1 PUSH2 0x506 JUMP JUMPDEST SWAP1 POP PUSH1 0x2 DUP3 PUSH2 0x2F7 SWAP2 SWAP1 PUSH2 0x5BA JUMP JUMPDEST SWAP2 POP PUSH2 0x204 JUMP JUMPDEST POP POP PUSH2 0x8EB JUMP JUMPDEST PUSH0 PUSH2 0x315 DUP3 PUSH2 0x323 PUSH1 0x20 SHL PUSH1 0x20 SHR JUMP JUMPDEST DUP1 MLOAD SWAP1 PUSH1 0x20 ADD KECCAK256 SWAP1 POP SWAP2 SWAP1 POP JUMP JUMPDEST PUSH1 0x60 DUP2 PUSH1 0x40 MLOAD PUSH1 0x20 ADD PUSH2 0x336 SWAP2 SWAP1 PUSH2 0x63C JUMP JUMPDEST PUSH1 0x40 MLOAD PUSH1 0x20 DUP2 DUP4 SUB SUB DUP2 MSTORE SWAP1 PUSH1 0x40 MSTORE SWAP1 POP SWAP2 SWAP1 POP JUMP JUMPDEST DUP3 PUSH1 0x4 DUP2 ADD SWAP3 DUP3 ISZERO PUSH2 0x387 JUMPI SWAP2 PUSH1 0x20 MUL DUP3 ADD JUMPDEST DUP3 DUP2 GT ISZERO PUSH2 0x386 JUMPI DUP3 MLOAD DUP3 SWAP1 DUP2 PUSH2 0x376 SWAP2 SWAP1 PUSH2 0x81C JUMP JUMPDEST POP SWAP2 PUSH1 0x20 ADD SWAP2 SWAP1 PUSH1 0x1 ADD SWAP1 PUSH2 0x35F JUMP JUMPDEST JUMPDEST POP SWAP1 POP PUSH2 0x394 SWAP2 SWAP1 PUSH2 0x398 JUMP JUMPDEST POP SWAP1 JUMP JUMPDEST JUMPDEST DUP1 DUP3 GT ISZERO PUSH2 0x3B7 JUMPI PUSH0 DUP2 DUP2 PUSH2 0x3AE SWAP2 SWAP1 PUSH2 0x3BB JUMP JUMPDEST POP PUSH1 0x1 ADD PUSH2 0x399 JUMP JUMPDEST POP SWAP1 JUMP JUMPDEST POP DUP1 SLOAD PUSH2 0x3C7 SWAP1 PUSH2 0x46D JUMP JUMPDEST PUSH0 DUP3 SSTORE DUP1 PUSH1 0x1F LT PUSH2 0x3D8 JUMPI POP PUSH2 0x3F5 JUMP JUMPDEST PUSH1 0x1F ADD PUSH1 0x20 SWAP1 DIV SWAP1 PUSH0 MSTORE PUSH1 0x20 PUSH0 KECCAK256 SWAP1 DUP2 ADD SWAP1 PUSH2 0x3F4 SWAP2 SWAP1 PUSH2 0x3F8 JUMP JUMPDEST JUMPDEST POP JUMP JUMPDEST JUMPDEST DUP1 DUP3 GT ISZERO PUSH2 0x40F JUMPI PUSH0 DUP2 PUSH0 SWAP1 SSTORE POP PUSH1 0x1 ADD PUSH2 0x3F9 JUMP JUMPDEST POP SWAP1 JUMP JUMPDEST PUSH32 0x4E487B7100000000000000000000000000000000000000000000000000000000 PUSH0 MSTORE PUSH1 0x32 PUSH1 0x4 MSTORE PUSH1 0x24 PUSH0 REVERT JUMPDEST PUSH32 0x4E487B7100000000000000000000000000000000000000000000000000000000 PUSH0 MSTORE PUSH1 0x22 PUSH1 0x4 MSTORE PUSH1 0x24 PUSH0 REVERT JUMPDEST PUSH0 PUSH1 0x2 DUP3 DIV SWAP1 POP PUSH1 0x1 DUP3 AND DUP1 PUSH2 0x484 JUMPI PUSH1 0x7F DUP3 AND SWAP2 POP JUMPDEST PUSH1 0x20 DUP3 LT DUP2 SUB PUSH2 0x497 JUMPI PUSH2 0x496 PUSH2 0x440 JUMP JUMPDEST JUMPDEST POP SWAP2 SWAP1 POP JUMP JUMPDEST PUSH0 DUP2 SWAP1 POP SWAP2 SWAP1 POP JUMP JUMPDEST PUSH32 0x4E487B7100000000000000000000000000000000000000000000000000000000 PUSH0 MSTORE PUSH1 0x11 PUSH1 0x4 MSTORE PUSH1 0x24 PUSH0 REVERT JUMPDEST PUSH0 PUSH2 0x4DD DUP3 PUSH2 0x49D JUMP JUMPDEST SWAP2 POP PUSH2 0x4E8 DUP4 PUSH2 0x49D JUMP JUMPDEST SWAP3 POP DUP3 DUP3 SUB SWAP1 POP DUP2 DUP2 GT ISZERO PUSH2 0x500 JUMPI PUSH2 0x4FF PUSH2 0x4A6 JUMP JUMPDEST JUMPDEST SWAP3 SWAP2 POP POP JUMP JUMPDEST PUSH0 PUSH2 0x510 DUP3 PUSH2 0x49D JUMP JUMPDEST SWAP2 POP PUSH2 0x51B DUP4 PUSH2 0x49D JUMP JUMPDEST SWAP3 POP DUP3 DUP3 ADD SWAP1 POP DUP1 DUP3 GT ISZERO PUSH2 0x533 JUMPI PUSH2 0x532 PUSH2 0x4A6 JUMP JUMPDEST JUMPDEST SWAP3 SWAP2 POP POP JUMP JUMPDEST PUSH0 DUP2 SWAP1 POP SWAP2 SWAP1 POP JUMP JUMPDEST PUSH0 DUP2 SWAP1 POP SWAP2 SWAP1 POP JUMP JUMPDEST PUSH2 0x55C PUSH2 0x557 DUP3 PUSH2 0x539 JUMP JUMPDEST PUSH2 0x542 JUMP JUMPDEST DUP3 MSTORE POP POP JUMP JUMPDEST PUSH0 PUSH2 0x56D DUP3 DUP6 PUSH2 0x54B JUMP JUMPDEST PUSH1 0x20 DUP3 ADD SWAP2 POP PUSH2 0x57D DUP3 DUP5 PUSH2 0x54B JUMP JUMPDEST PUSH1 0x20 DUP3 ADD SWAP2 POP DUP2 SWAP1 POP SWAP4 SWAP3 POP POP POP JUMP JUMPDEST PUSH32 0x4E487B7100000000000000000000000000000000000000000000000000000000 PUSH0 MSTORE PUSH1 0x12 PUSH1 0x4 MSTORE PUSH1 0x24 PUSH0 REVERT JUMPDEST PUSH0 PUSH2 0x5C4 DUP3 PUSH2 0x49D JUMP JUMPDEST SWAP2 POP PUSH2 0x5CF DUP4 PUSH2 0x49D JUMP JUMPDEST SWAP3 POP DUP3 PUSH2 0x5DF JUMPI PUSH2 0x5DE PUSH2 0x58D JUMP JUMPDEST JUMPDEST DUP3 DUP3 DIV SWAP1 POP SWAP3 SWAP2 POP POP JUMP JUMPDEST PUSH0 DUP2 MLOAD SWAP1 POP SWAP2 SWAP1 POP JUMP JUMPDEST PUSH0 DUP2 SWAP1 POP SWAP3 SWAP2 POP POP JUMP JUMPDEST DUP3 DUP2 DUP4 MCOPY PUSH0 DUP4 DUP4 ADD MSTORE POP POP POP JUMP JUMPDEST PUSH0 PUSH2 0x616 DUP3 PUSH2 0x5EA JUMP JUMPDEST PUSH2 0x620 DUP2 DUP6 PUSH2 0x5F4 JUMP JUMPDEST SWAP4 POP PUSH2 0x630 DUP2 DUP6 PUSH1 0x20 DUP7 ADD PUSH2 0x5FE JUMP JUMPDEST DUP1 DUP5 ADD SWAP2 POP POP SWAP3 SWAP2 POP POP JUMP JUMPDEST PUSH0 PUSH2 0x647 DUP3 DUP5 PUSH2 0x60C JUMP JUMPDEST SWAP2 POP DUP2 SWAP1 POP SWAP3 SWAP2 POP POP JUMP JUMPDEST PUSH32 0x4E487B7100000000000000000000000000000000000000000000000000000000 PUSH0 MSTORE PUSH1 0x41 PUSH1 0x4 MSTORE PUSH1 0x24 PUSH0 REVERT JUMPDEST PUSH0 DUP2 SWAP1 POP DUP2 PUSH0 MSTORE PUSH1 0x20 PUSH0 KECCAK256 SWAP1 POP SWAP2 SWAP1 POP JUMP JUMPDEST PUSH0 PUSH1 0x20 PUSH1 0x1F DUP4 ADD DIV SWAP1 POP SWAP2 SWAP1 POP JUMP JUMPDEST PUSH0 DUP3 DUP3 SHL SWAP1 POP SWAP3 SWAP2 POP POP JUMP JUMPDEST PUSH0 PUSH1 0x8 DUP4 MUL PUSH2 0x6DB PUSH32 0xFFFFFFFFFFFFFFFFFFFFFFFFFFFFFFFFFFFFFFFFFFFFFFFFFFFFFFFFFFFFFFFF DUP3 PUSH2 0x6A0 JUMP JUMPDEST PUSH2 0x6E5 DUP7 DUP4 PUSH2 0x6A0 JUMP JUMPDEST SWAP6 POP DUP1 NOT DUP5 AND SWAP4 POP DUP1 DUP7 AND DUP5 OR SWAP3 POP POP POP SWAP4 SWAP3 POP POP POP JUMP JUMPDEST PUSH0 DUP2 SWAP1 POP SWAP2 SWAP1 POP JUMP JUMPDEST PUSH0 PUSH2 0x720 PUSH2 0x71B PUSH2 0x716 DUP5 PUSH2 0x49D JUMP JUMPDEST PUSH2 0x6FD JUMP JUMPDEST PUSH2 0x49D JUMP JUMPDEST SWAP1 POP SWAP2 SWAP1 POP JUMP JUMPDEST PUSH0 DUP2 SWAP1 POP SWAP2 SWAP1 POP JUMP JUMPDEST PUSH2 0x739 DUP4 PUSH2 0x706 JUMP JUMPDEST PUSH2 0x74D PUSH2 0x745 DUP3 PUSH2 0x727 JUMP JUMPDEST DUP5 DUP5 SLOAD PUSH2 0x6AC JUMP JUMPDEST DUP3 SSTORE POP POP POP POP JUMP JUMPDEST PUSH0 SWAP1 JUMP JUMPDEST PUSH2 0x761 PUSH2 0x755 JUMP JUMPDEST PUSH2 0x76C DUP2 DUP5 DUP5 PUSH2 0x730 JUMP JUMPDEST POP POP POP JUMP JUMPDEST JUMPDEST DUP2 DUP2 LT ISZERO PUSH2 0x78F JUMPI PUSH2 0x784 PUSH0 DUP3 PUSH2 0x759 JUMP JUMPDEST PUSH1 0x1 DUP2 ADD SWAP1 POP PUSH2 0x772 JUMP JUMPDEST POP POP JUMP JUMPDEST PUSH1 0x1F DUP3 GT ISZERO PUSH2 0x7D4 JUMPI PUSH2 0x7A5 DUP2 PUSH2 0x67F JUMP JUMPDEST PUSH2 0x7AE DUP5 PUSH2 0x691 JUMP JUMPDEST DUP2 ADD PUSH1 0x20 DUP6 LT ISZERO PUSH2 0x7BD JUMPI DUP2 SWAP1 POP JUMPDEST PUSH2 0x7D1 PUSH2 0x7C9 DUP6 PUSH2 0x691 JUMP JUMPDEST DUP4 ADD DUP3 PUSH2 0x771 JUMP JUMPDEST POP POP JUMPDEST POP POP POP JUMP JUMPDEST PUSH0 DUP3 DUP3 SHR SWAP1 POP SWAP3 SWAP2 POP POP JUMP JUMPDEST PUSH0 PUSH2 0x7F4 PUSH0 NOT DUP5 PUSH1 0x8 MUL PUSH2 0x7D9 JUMP JUMPDEST NOT DUP1 DUP4 AND SWAP2 POP POP SWAP3 SWAP2 POP POP JUMP JUMPDEST PUSH0 PUSH2 0x80C DUP4 DUP4 PUSH2 0x7E5 JUMP JUMPDEST SWAP2 POP DUP3 PUSH1 0x2 MUL DUP3 OR SWAP1 POP SWAP3 SWAP2 POP POP JUMP JUMPDEST PUSH2 0x825 DUP3 PUSH2 0x5EA JUMP JUMPDEST PUSH8 0xFFFFFFFFFFFFFFFF DUP2 GT ISZERO PUSH2 0x83E JUMPI PUSH2 0x83D PUSH2 0x652 JUMP JUMPDEST JUMPDEST PUSH2 0x848 DUP3 SLOAD PUSH2 0x46D JUMP JUMPDEST PUSH2 0x853 DUP3 DUP3 DUP6 PUSH2 0x793 JUMP JUMPDEST PUSH0 PUSH1 0x20 SWAP1 POP PUSH1 0x1F DUP4 GT PUSH1 0x1 DUP2 EQ PUSH2 0x884 JUMPI PUSH0 DUP5 ISZERO PUSH2 0x872 JUMPI DUP3 DUP8 ADD MLOAD SWAP1 POP JUMPDEST PUSH2 0x87C DUP6 DUP3 PUSH2 0x801 JUMP JUMPDEST DUP7 SSTORE POP PUSH2 0x8E3 JUMP JUMPDEST PUSH1 0x1F NOT DUP5 AND PUSH2 0x892 DUP7 PUSH2 0x67F JUMP JUMPDEST PUSH0 JUMPDEST DUP3 DUP2 LT ISZERO PUSH2 0x8B9 JUMPI DUP5 DUP10 ADD MLOAD DUP3 SSTORE PUSH1 0x1 DUP3 ADD SWAP2 POP PUSH1 0x20 DUP6 ADD SWAP5 POP PUSH1 0x20 DUP2 ADD SWAP1 POP PUSH2 0x894 JUMP JUMPDEST DUP7 DUP4 LT ISZERO PUSH2 0x8D6 JUMPI DUP5 DUP10 ADD MLOAD PUSH2 0x8D2 PUSH1 0x1F DUP10 AND DUP3 PUSH2 0x7E5 JUMP JUMPDEST DUP4 SSTORE POP JUMPDEST PUSH1 0x1 PUSH1 0x2 DUP9 MUL ADD DUP9 SSTORE POP POP POP JUMPDEST POP POP POP POP POP POP JUMP JUMPDEST PUSH2 0x834 DUP1 PUSH2 0x8F8 PUSH0 CODECOPY PUSH0 RETURN INVALID PUSH1 0x80 PUSH1 0x40 MSTORE CALLVALUE DUP1 ISZERO PUSH2 0xF JUMPI PUSH0 DUP1 REVERT JUMPDEST POP PUSH1 0x4 CALLDATASIZE LT PUSH2 0x4A JUMPI PUSH0 CALLDATALOAD PUSH1 0xE0 SHR DUP1 PUSH4 0x2637CCCF EQ PUSH2 0x4E JUMPI DUP1 PUSH4 0x501895AE EQ PUSH2 0x7E JUMPI DUP1 PUSH4 0x52DE70AF EQ PUSH2 0xAE JUMPI DUP1 PUSH4 0x6A11B2A8 EQ PUSH2 0xDE JUMPI JUMPDEST PUSH0 DUP1 REVERT JUMPDEST PUSH2 0x68 PUSH1 0x4 DUP1 CALLDATASIZE SUB DUP2 ADD SWAP1 PUSH2 0x63 SWAP2 SWAP1 PUSH2 0x4B6 JUMP JUMPDEST PUSH2 0x10E JUMP JUMPDEST PUSH1 0x40 MLOAD PUSH2 0x75 SWAP2 SWAP1 PUSH2 0x56C JUMP JUMPDEST PUSH1 0x40 MLOAD DUP1 SWAP2 SUB SWAP1 RETURN JUMPDEST PUSH2 0x98 PUSH1 0x4 DUP1 CALLDATASIZE SUB DUP2 ADD SWAP1 PUSH2 0x93 SWAP2 SWAP1 PUSH2 0x585 JUMP JUMPDEST PUSH2 0x1DF JUMP JUMPDEST PUSH1 0x40 MLOAD PUSH2 0xA5 SWAP2 SWAP1 PUSH2 0x5BF JUMP JUMPDEST PUSH1 0x40 MLOAD DUP1 SWAP2 SUB SWAP1 RETURN JUMPDEST PUSH2 0xC8 PUSH1 0x4 DUP1 CALLDATASIZE SUB DUP2 ADD SWAP1 PUSH2 0xC3 SWAP2 SWAP1 PUSH2 0x5D8 JUMP JUMPDEST PUSH2 0x1FE JUMP JUMPDEST PUSH1 0x40 MLOAD PUSH2 0xD5 SWAP2 SWAP1 PUSH2 0x5BF JUMP JUMPDEST PUSH1 0x40 MLOAD DUP1 SWAP2 SUB SWAP1 RETURN JUMPDEST PUSH2 0xF8 PUSH1 0x4 DUP1 CALLDATASIZE SUB DUP2 ADD SWAP1 PUSH2 0xF3 SWAP2 SWAP1 PUSH2 0x5D8 JUMP JUMPDEST PUSH2 0x216 JUMP JUMPDEST PUSH1 0x40 MLOAD PUSH2 0x105 SWAP2 SWAP1 PUSH2 0x67F JUMP JUMPDEST PUSH1 0x40 MLOAD DUP1 SWAP2 SUB SWAP1 RETURN JUMPDEST PUSH0 DUP1 PUSH2 0x119 DUP7 PUSH2 0x1FE JUMP JUMPDEST SWAP1 POP PUSH0 JUMPDEST DUP4 MLOAD DUP2 LT ISZERO PUSH2 0x1D0 JUMPI PUSH0 DUP5 DUP3 DUP2 MLOAD DUP2 LT PUSH2 0x13A JUMPI PUSH2 0x139 PUSH2 0x69F JUMP JUMPDEST JUMPDEST PUSH1 0x20 MUL PUSH1 0x20 ADD ADD MLOAD SWAP1 POP PUSH0 PUSH1 0x2 DUP9 PUSH2 0x152 SWAP2 SWAP1 PUSH2 0x6F9 JUMP JUMPDEST SUB PUSH2 0x187 JUMPI DUP3 DUP2 PUSH1 0x40 MLOAD PUSH1 0x20 ADD PUSH2 0x16A SWAP3 SWAP2 SWAP1 PUSH2 0x749 JUMP JUMPDEST PUSH1 0x40 MLOAD PUSH1 0x20 DUP2 DUP4 SUB SUB DUP2 MSTORE SWAP1 PUSH1 0x40 MSTORE DUP1 MLOAD SWAP1 PUSH1 0x20 ADD KECCAK256 SWAP3 POP PUSH2 0x1B3 JUMP JUMPDEST DUP1 DUP4 PUSH1 0x40 MLOAD PUSH1 0x20 ADD PUSH2 0x19A SWAP3 SWAP2 SWAP1 PUSH2 0x749 JUMP JUMPDEST PUSH1 0x40 MLOAD PUSH1 0x20 DUP2 DUP4 SUB SUB DUP2 MSTORE SWAP1 PUSH1 0x40 MSTORE DUP1 MLOAD SWAP1 PUSH1 0x20 ADD KECCAK256 SWAP3 POP JUMPDEST PUSH1 0x2 DUP8 PUSH2 0x1C0 SWAP2 SWAP1 PUSH2 0x774 JUMP JUMPDEST SWAP7 POP POP DUP1 DUP1 PUSH1 0x1 ADD SWAP2 POP POP PUSH2 0x11D JUMP JUMPDEST POP DUP4 DUP2 EQ SWAP2 POP POP SWAP5 SWAP4 POP POP POP POP JUMP JUMPDEST PUSH0 DUP2 DUP2 SLOAD DUP2 LT PUSH2 0x1ED JUMPI PUSH0 DUP1 REVERT JUMPDEST SWAP1 PUSH0 MSTORE PUSH1 0x20 PUSH0 KECCAK256 ADD PUSH0 SWAP2 POP SWAP1 POP SLOAD DUP2 JUMP JUMPDEST PUSH0 PUSH2 0x208 DUP3 PUSH2 0x216 JUMP JUMPDEST DUP1 MLOAD SWAP1 PUSH1 0x20 ADD KECCAK256 SWAP1 POP SWAP2 SWAP1 POP JUMP JUMPDEST PUSH1 0x60 DUP2 PUSH1 0x40 MLOAD PUSH1 0x20 ADD PUSH2 0x229 SWAP2 SWAP1 PUSH2 0x7E8 JUMP JUMPDEST PUSH1 0x40 MLOAD PUSH1 0x20 DUP2 DUP4 SUB SUB DUP2 MSTORE SWAP1 PUSH1 0x40 MSTORE SWAP1 POP SWAP2 SWAP1 POP JUMP JUMPDEST PUSH0 PUSH1 0x40 MLOAD SWAP1 POP SWAP1 JUMP JUMPDEST PUSH0 DUP1 REVERT JUMPDEST PUSH0 DUP1 REVERT JUMPDEST PUSH0 DUP1 REVERT JUMPDEST PUSH0 DUP1 REVERT JUMPDEST PUSH0 PUSH1 0x1F NOT PUSH1 0x1F DUP4 ADD AND SWAP1 POP SWAP2 SWAP1 POP JUMP JUMPDEST PUSH32 0x4E487B7100000000000000000000000000000000000000000000000000000000 PUSH0 MSTORE PUSH1 0x41 PUSH1 0x4 MSTORE PUSH1 0x24 PUSH0 REVERT JUMPDEST PUSH2 0x29E DUP3 PUSH2 0x258 JUMP JUMPDEST DUP2 ADD DUP2 DUP2 LT PUSH8 0xFFFFFFFFFFFFFFFF DUP3 GT OR ISZERO PUSH2 0x2BD JUMPI PUSH2 0x2BC PUSH2 0x268 JUMP JUMPDEST JUMPDEST DUP1 PUSH1 0x40 MSTORE POP POP POP JUMP JUMPDEST PUSH0 PUSH2 0x2CF PUSH2 0x23F JUMP JUMPDEST SWAP1 POP PUSH2 0x2DB DUP3 DUP3 PUSH2 0x295 JUMP JUMPDEST SWAP2 SWAP1 POP JUMP JUMPDEST PUSH0 PUSH8 0xFFFFFFFFFFFFFFFF DUP3 GT ISZERO PUSH2 0x2FA JUMPI PUSH2 0x2F9 PUSH2 0x268 JUMP JUMPDEST JUMPDEST PUSH2 0x303 DUP3 PUSH2 0x258 JUMP JUMPDEST SWAP1 POP PUSH1 0x20 DUP2 ADD SWAP1 POP SWAP2 SWAP1 POP JUMP JUMPDEST DUP3 DUP2 DUP4 CALLDATACOPY PUSH0 DUP4 DUP4 ADD MSTORE POP POP POP JUMP JUMPDEST PUSH0 PUSH2 0x330 PUSH2 0x32B DUP5 PUSH2 0x2E0 JUMP JUMPDEST PUSH2 0x2C6 JUMP JUMPDEST SWAP1 POP DUP3 DUP2 MSTORE PUSH1 0x20 DUP2 ADD DUP5 DUP5 DUP5 ADD GT ISZERO PUSH2 0x34C JUMPI PUSH2 0x34B PUSH2 0x254 JUMP JUMPDEST JUMPDEST PUSH2 0x357 DUP5 DUP3 DUP6 PUSH2 0x310 JUMP JUMPDEST POP SWAP4 SWAP3 POP POP POP JUMP JUMPDEST PUSH0 DUP3 PUSH1 0x1F DUP4 ADD SLT PUSH2 0x373 JUMPI PUSH2 0x372 PUSH2 0x250 JUMP JUMPDEST JUMPDEST DUP2 CALLDATALOAD PUSH2 0x383 DUP5 DUP3 PUSH1 0x20 DUP7 ADD PUSH2 0x31E JUMP JUMPDEST SWAP2 POP POP SWAP3 SWAP2 POP POP JUMP JUMPDEST PUSH0 DUP2 SWAP1 POP SWAP2 SWAP1 POP JUMP JUMPDEST PUSH2 0x39E DUP2 PUSH2 0x38C JUMP JUMPDEST DUP2 EQ PUSH2 0x3A8 JUMPI PUSH0 DUP1 REVERT JUMPDEST POP JUMP JUMPDEST PUSH0 DUP2 CALLDATALOAD SWAP1 POP PUSH2 0x3B9 DUP2 PUSH2 0x395 JUMP JUMPDEST SWAP3 SWAP2 POP POP JUMP JUMPDEST PUSH0 DUP2 SWAP1 POP SWAP2 SWAP1 POP JUMP JUMPDEST PUSH2 0x3D1 DUP2 PUSH2 0x3BF JUMP JUMPDEST DUP2 EQ PUSH2 0x3DB JUMPI PUSH0 DUP1 REVERT JUMPDEST POP JUMP JUMPDEST PUSH0 DUP2 CALLDATALOAD SWAP1 POP PUSH2 0x3EC DUP2 PUSH2 0x3C8 JUMP JUMPDEST SWAP3 SWAP2 POP POP JUMP JUMPDEST PUSH0 PUSH8 0xFFFFFFFFFFFFFFFF DUP3 GT ISZERO PUSH2 0x40C JUMPI PUSH2 0x40B PUSH2 0x268 JUMP JUMPDEST JUMPDEST PUSH1 0x20 DUP3 MUL SWAP1 POP PUSH1 0x20 DUP2 ADD SWAP1 POP SWAP2 SWAP1 POP JUMP JUMPDEST PUSH0 DUP1 REVERT JUMPDEST PUSH0 PUSH2 0x433 PUSH2 0x42E DUP5 PUSH2 0x3F2 JUMP JUMPDEST PUSH2 0x2C6 JUMP JUMPDEST SWAP1 POP DUP1 DUP4 DUP3 MSTORE PUSH1 0x20 DUP3 ADD SWAP1 POP PUSH1 0x20 DUP5 MUL DUP4 ADD DUP6 DUP2 GT ISZERO PUSH2 0x456 JUMPI PUSH2 0x455 PUSH2 0x41D JUMP JUMPDEST JUMPDEST DUP4 JUMPDEST DUP2 DUP2 LT ISZERO PUSH2 0x47F JUMPI DUP1 PUSH2 0x46B DUP9 DUP3 PUSH2 0x3DE JUMP JUMPDEST DUP5 MSTORE PUSH1 0x20 DUP5 ADD SWAP4 POP POP PUSH1 0x20 DUP2 ADD SWAP1 POP PUSH2 0x458 JUMP JUMPDEST POP POP POP SWAP4 SWAP3 POP POP POP JUMP JUMPDEST PUSH0 DUP3 PUSH1 0x1F DUP4 ADD SLT PUSH2 0x49D JUMPI PUSH2 0x49C PUSH2 0x250 JUMP JUMPDEST JUMPDEST DUP2 CALLDATALOAD PUSH2 0x4AD DUP5 DUP3 PUSH1 0x20 DUP7 ADD PUSH2 0x421 JUMP JUMPDEST SWAP2 POP POP SWAP3 SWAP2 POP POP JUMP JUMPDEST PUSH0 DUP1 PUSH0 DUP1 PUSH1 0x80 DUP6 DUP8 SUB SLT ISZERO PUSH2 0x4CE JUMPI PUSH2 0x4CD PUSH2 0x248 JUMP JUMPDEST JUMPDEST PUSH0 DUP6 ADD CALLDATALOAD PUSH8 0xFFFFFFFFFFFFFFFF DUP2 GT ISZERO PUSH2 0x4EB JUMPI PUSH2 0x4EA PUSH2 0x24C JUMP JUMPDEST JUMPDEST PUSH2 0x4F7 DUP8 DUP3 DUP9 ADD PUSH2 0x35F JUMP JUMPDEST SWAP5 POP POP PUSH1 0x20 PUSH2 0x508 DUP8 DUP3 DUP9 ADD PUSH2 0x3AB JUMP JUMPDEST SWAP4 POP POP PUSH1 0x40 PUSH2 0x519 DUP8 DUP3 DUP9 ADD PUSH2 0x3DE JUMP JUMPDEST SWAP3 POP POP PUSH1 0x60 DUP6 ADD CALLDATALOAD PUSH8 0xFFFFFFFFFFFFFFFF DUP2 GT ISZERO PUSH2 0x53A JUMPI PUSH2 0x539 PUSH2 0x24C JUMP JUMPDEST JUMPDEST PUSH2 0x546 DUP8 DUP3 DUP9 ADD PUSH2 0x489 JUMP JUMPDEST SWAP2 POP POP SWAP3 SWAP6 SWAP2 SWAP5 POP SWAP3 POP JUMP JUMPDEST PUSH0 DUP2 ISZERO ISZERO SWAP1 POP SWAP2 SWAP1 POP JUMP JUMPDEST PUSH2 0x566 DUP2 PUSH2 0x552 JUMP JUMPDEST DUP3 MSTORE POP POP JUMP JUMPDEST PUSH0 PUSH1 0x20 DUP3 ADD SWAP1 POP PUSH2 0x57F PUSH0 DUP4 ADD DUP5 PUSH2 0x55D JUMP JUMPDEST SWAP3 SWAP2 POP POP JUMP JUMPDEST PUSH0 PUSH1 0x20 DUP3 DUP5 SUB SLT ISZERO PUSH2 0x59A JUMPI PUSH2 0x599 PUSH2 0x248 JUMP JUMPDEST JUMPDEST PUSH0 PUSH2 0x5A7 DUP5 DUP3 DUP6 ADD PUSH2 0x3AB JUMP JUMPDEST SWAP2 POP POP SWAP3 SWAP2 POP POP JUMP JUMPDEST PUSH2 0x5B9 DUP2 PUSH2 0x3BF JUMP JUMPDEST DUP3 MSTORE POP POP JUMP JUMPDEST PUSH0 PUSH1 0x20 DUP3 ADD SWAP1 POP PUSH2 0x5D2 PUSH0 DUP4 ADD DUP5 PUSH2 0x5B0 JUMP JUMPDEST SWAP3 SWAP2 POP POP JUMP JUMPDEST PUSH0 PUSH1 0x20 DUP3 DUP5 SUB SLT ISZERO PUSH2 0x5ED JUMPI PUSH2 0x5EC PUSH2 0x248 JUMP JUMPDEST JUMPDEST PUSH0 DUP3 ADD CALLDATALOAD PUSH8 0xFFFFFFFFFFFFFFFF DUP2 GT ISZERO PUSH2 0x60A JUMPI PUSH2 0x609 PUSH2 0x24C JUMP JUMPDEST JUMPDEST PUSH2 0x616 DUP5 DUP3 DUP6 ADD PUSH2 0x35F JUMP JUMPDEST SWAP2 POP POP SWAP3 SWAP2 POP POP JUMP JUMPDEST PUSH0 DUP2 MLOAD SWAP1 POP SWAP2 SWAP1 POP JUMP JUMPDEST PUSH0 DUP3 DUP3 MSTORE PUSH1 0x20 DUP3 ADD SWAP1 POP SWAP3 SWAP2 POP POP JUMP JUMPDEST DUP3 DUP2 DUP4 MCOPY PUSH0 DUP4 DUP4 ADD MSTORE POP POP POP JUMP JUMPDEST PUSH0 PUSH2 0x651 DUP3 PUSH2 0x61F JUMP JUMPDEST PUSH2 0x65B DUP2 DUP6 PUSH2 0x629 JUMP JUMPDEST SWAP4 POP PUSH2 0x66B DUP2 DUP6 PUSH1 0x20 DUP7 ADD PUSH2 0x639 JUMP JUMPDEST PUSH2 0x674 DUP2 PUSH2 0x258 JUMP JUMPDEST DUP5 ADD SWAP2 POP POP SWAP3 SWAP2 POP POP JUMP JUMPDEST PUSH0 PUSH1 0x20 DUP3 ADD SWAP1 POP DUP2 DUP2 SUB PUSH0 DUP4 ADD MSTORE PUSH2 0x697 DUP2 DUP5 PUSH2 0x647 JUMP JUMPDEST SWAP1 POP SWAP3 SWAP2 POP POP JUMP JUMPDEST PUSH32 0x4E487B7100000000000000000000000000000000000000000000000000000000 PUSH0 MSTORE PUSH1 0x32 PUSH1 0x4 MSTORE PUSH1 0x24 PUSH0 REVERT JUMPDEST PUSH32 0x4E487B7100000000000000000000000000000000000000000000000000000000 PUSH0 MSTORE PUSH1 0x12 PUSH1 0x4 MSTORE PUSH1 0x24 PUSH0 REVERT JUMPDEST PUSH0 PUSH2 0x703 DUP3 PUSH2 0x38C JUMP JUMPDEST SWAP2 POP PUSH2 0x70E DUP4 PUSH2 0x38C JUMP JUMPDEST SWAP3 POP DUP3 PUSH2 0x71E JUMPI PUSH2 0x71D PUSH2 0x6CC JUMP JUMPDEST JUMPDEST DUP3 DUP3 MOD SWAP1 POP SWAP3 SWAP2 POP POP JUMP JUMPDEST PUSH0 DUP2 SWAP1 POP SWAP2 SWAP1 POP JUMP JUMPDEST PUSH2 0x743 PUSH2 0x73E DUP3 PUSH2 0x3BF JUMP JUMPDEST PUSH2 0x729 JUMP JUMPDEST DUP3 MSTORE POP POP JUMP JUMPDEST PUSH0 PUSH2 0x754 DUP3 DUP6 PUSH2 0x732 JUMP JUMPDEST PUSH1 0x20 DUP3 ADD SWAP2 POP PUSH2 0x764 DUP3 DUP5 PUSH2 0x732 JUMP JUMPDEST PUSH1 0x20 DUP3 ADD SWAP2 POP DUP2 SWAP1 POP SWAP4 SWAP3 POP POP POP JUMP JUMPDEST PUSH0 PUSH2 0x77E DUP3 PUSH2 0x38C JUMP JUMPDEST SWAP2 POP PUSH2 0x789 DUP4 PUSH2 0x38C JUMP JUMPDEST SWAP3 POP DUP3 PUSH2 0x799 JUMPI PUSH2 0x798 PUSH2 0x6CC JUMP JUMPDEST JUMPDEST DUP3 DUP3 DIV SWAP1 POP SWAP3 SWAP2 POP POP JUMP JUMPDEST PUSH0 DUP2 MLOAD SWAP1 POP SWAP2 SWAP1 POP JUMP JUMPDEST PUSH0 DUP2 SWAP1 POP SWAP3 SWAP2 POP POP JUMP JUMPDEST PUSH0 PUSH2 0x7C2 DUP3 PUSH2 0x7A4 JUMP JUMPDEST PUSH2 0x7CC DUP2 DUP6 PUSH2 0x7AE JUMP JUMPDEST SWAP4 POP PUSH2 0x7DC DUP2 DUP6 PUSH1 0x20 DUP7 ADD PUSH2 0x639 JUMP JUMPDEST DUP1 DUP5 ADD SWAP2 POP POP SWAP3 SWAP2 POP POP JUMP JUMPDEST PUSH0 PUSH2 0x7F3 DUP3 DUP5 PUSH2 0x7B8 JUMP JUMPDEST SWAP2 POP DUP2 SWAP1 POP SWAP3 SWAP2 POP POP JUMP INVALID LOG2 PUSH5 0x6970667358 0x22 SLT KECCAK256 ISZERO 0xCC 0xE4 0x2D CALLVALUE DUP4 SWAP12 0xCE 0xE3 TIMESTAMP PUSH18 0x6835E82ABEE14D85610C7DD50DD9C6AAB4FC XOR 0x4E PUSH26 0x64736F6C63430008190033000000000000000000000000000000 "
				},
				"gasEstimates": {
					"creation": {
						"codeDepositCost": "420000",
						"executionCost": "infinite",
						"totalCost": "infinite"
					},
					"external": {
						"encode(string)": "infinite",
						"hashes(uint256)": "4870",
						"makeHash(string)": "infinite",
						"verify(string,uint256,bytes32,bytes32[])": "infinite"
					}
				},
				"methodIdentifiers": {
					"encode(string)": "6a11b2a8",
					"hashes(uint256)": "501895ae",
					"makeHash(string)": "52de70af",
					"verify(string,uint256,bytes32,bytes32[])": "2637cccf"
				}
			},
			"storageLayout": {
				"storage": [
					{
						"astId": 4,
						"contract": "Users/smidolt/new files in programming/HARDHEAD/contracts/Education/7_Trees.sol:Tree",
						"label": "hashes",
						"offset": 0,
						"slot": "0",
						"type": "t_array(t_bytes32)dyn_storage"
					},
					{
						"astId": 13,
						"contract": "Users/smidolt/new files in programming/HARDHEAD/contracts/Education/7_Trees.sol:Tree",
						"label": "transactions",
						"offset": 0,
						"slot": "1",
						"type": "t_array(t_string_storage)4_storage"
					}
				],
				"types": {
					"t_array(t_bytes32)dyn_storage": {
						"base": "t_bytes32",
						"encoding": "dynamic_array",
						"label": "bytes32[]",
						"numberOfBytes": "32"
					},
					"t_array(t_string_storage)4_storage": {
						"base": "t_string_storage",
						"encoding": "inplace",
						"label": "string[4]",
						"numberOfBytes": "128"
					},
					"t_bytes32": {
						"encoding": "inplace",
						"label": "bytes32",
						"numberOfBytes": "32"
					},
					"t_string_storage": {
						"encoding": "bytes",
						"label": "string",
						"numberOfBytes": "32"
					}
				}
			},
			"userdoc": {
				"kind": "user",
				"methods": {},
				"version": 1
			}
		}
	}
}